:020000040800F2
:100000005848002075020008DD1200081F10000883
:10001000D9120008430900089326000800000000D8
:10002000000000000000000000000000DD010008EA
:10003000E10D00080000000021020008C3190008BB
:100040008F0200088F0200088F0200088F0200084C
:100050008F0200088F020008E50D00088F020008DB
:10006000250E00082F0E00083F0E00088F02000822
:100070008F0200088F0200088F0200088F0200081C
:100080008F0200088F0200088F0200088F0200080C
:100090008F0200088F0200088F0200088F020008FC
:1000A0008F0200088F0200088F0200088F020008EC
:1000B0002D1B0008C91C0008011D00088F02000844
:1000C0008F0200088F0200088F0200088F020008CC
:1000D0008F020008B92100087D2200085123000882
:1000E0008F0200088F0200088F02000800F002F85B
:1000F00000F065F80AA090E8000C82448344AAF15D
:100100000107DA4501D100F05AF8AFF2090EBAE85A
:100110000F0013F0010F18BFFB1A43F0010318473B
:1001200088590000A85900000A444FF0000C10F84C
:10013000013B13F0070408BF10F8014B1D1108BF65
:1001400010F8015B641E05D010F8016B641E01F805
:10015000016BF9D113F0080F1EBF10F8014BAD1C55
:100160000C1B09D16D1E58BF01F801CBFAD505E073
:1001700014F8016B01F8016B6D1EF9D59142D6D3CD
:10018000704700000023002400250026103A28BFF5
:1001900078C1FBD8520728BF30C148BF0B607047F9
:1001A000642900F0F380632900F02C82732900F0A9
:1001B0003182002070471FB51FBD10B510BD00F083
:1001C00087FA1146FFF7F7FF02F052FB00F0A5FA9D
:1001D00003B4FFF7F2FF03BC02F0B4FA224B196834
:1001E0000868B0E8F00F80F30988BFF36F8F4FF015
:1001F000000080F311884EF00D0E704700000000E3
:1002000006480068006880F3088862B661B6BFF3EC
:100210004F8FBFF36F8F00DF00BF00BF08ED00E01E
:10022000EFF30980BFF36F8F0F4B1A6820E9F00FCF
:10023000106008B54FF0600080F31188BFF34F8F56
:10024000BFF36F8F03F0ECFF4FF0000080F31188D5
:10025000BDE8084019680868B0E8F00F80F3098825
:10026000BFF36F8F704700BF6C140020EFF3058061
:10027000704700000948804709480047FEE7FEE74D
:10028000FEE7FEE7FEE7FEE7FEE7FEE7FEE7FEE746
:1002900004480549054A064B70470000D519000877
:1002A000ED00000858420020584800205844002023
:1002B00058440020704700000FB4044910B503AA49
:1002C000029800F0ABF910BC5DF814FB5C14002040
:1002D0002DE9F0410E460446002020622046E168E8
:1002E000884730B3252805D0D4E901219047206AFA
:1002F000401CF2E7E168204600278847050018D037
:10030000A5F14100192802D820354FF40067324684
:10031000294620462760FFF743FF40B1012804D05B
:10032000F61D26F007060836D8E7361DD6E728461C
:10033000DAE7206ABDE8F08170B50C460546012A6F
:1003400005D02878800600D5EA69002302E0012361
:1003500005E05B1C934202D2E05C0028F9D1A86959
:10036000E618C01AA861286A184428622846AFF324
:10037000008004E0D5E9012114F8010B9047B44254
:10038000F8D32846AFF3008070BD00002DE9F0419E
:100390000646002410687529314616A510D0AFF323
:1003A0000080002802DA404213A507E031688A077E
:1003B00001D512A502E0490704D511A5012401E0E9
:1003C000AFF3008000210A2206F1240709E0B0FB08
:1003D000F2FCB0FBF2F302FB1C00303078541846FC
:1003E000491C0028F3D123462A463046BDE8F04197
:1003F00000F0A5B8000000002D0000002B00000058
:1004000020000000032A40F2308010F0030C00F0BE
:10041000158011F8013BBCF1020F624498BF11F83E
:1004200001CB00F8013B38BF11F8013BA2F10402F7
:1004300098BF00F801CB38BF00F8013B11F003036F
:1004400000F02580083AC0F0088051F8043B083AD3
:1004500051F804CBA0E80810F5E7121D5CBF51F875
:10046000043B40F8043BAFF30080D20724BF11F8EF
:10047000013B11F801CB48BF11F8012B24BF00F854
:10048000013B00F801CB48BF00F8012B704710B5C5
:10049000203AC0F00B80B1E81850203AA0E818507C
:1004A000B1E81850A0E81850BFF4F5AF5FEA027C3D
:1004B00024BFB1E81850A0E8185044BF18C918C0AC
:1004C000BDE810405FEA827C24BF51F8043B40F84D
:1004D000043B08BF7047D20728BF31F8023B48BF32
:1004E00011F8012B28BF20F8023B48BF00F8012B70
:1004F00070474FF000020429C0F0128010F0030C86
:1005000000F0A080CCF1040CBCF1020F18BF00F881
:10051000012BA8BF20F8022BA1EB0C0100F092B830
:100520005FEAC17C24BF00F8012B00F8012B48BF13
:1005300000F8012B704770477047704770472DE9EE
:10054000F0470D4699469246044600F1240801689A
:10055000880604D5E06921F01001216000E0012047
:10056000A84201DD471B00E00027A1697A1902EBD0
:100570000900081AA0612078C00602D42046AFF313
:100580000080002608E0D4E901211AF8060090470F
:10059000206A401C761C20624E45F4DB2078C006A1
:1005A0000AD52046AFF3008006E0D4E901213020CF
:1005B0009047206A401C2062381EA7F10107F4DC36
:1005C00007E0D4E9012118F805009047206A401C93
:1005D0002062281EA5F10105F3DC2046AFF3008060
:1005E0002078000602D50220BDE8F0870120FBE755
:1005F00010B5436913B1AFF3008001E0FFF79CFE33
:10060000012010BD127800F124010A7000224A7006
:100610000122EDE711684FF0FF32E9E7074B70B5B3
:100620000D467B4400F039F80446284600F048F8AF
:1006300010B14FF0FF3070BD204670BD2722000082
:100640004FF0000200B5134694469646203922BF6B
:10065000A0E80C50A0E80C50B1F12001BFF4F7AFB6
:10066000090728BFA0E80C5048BF0CC05DF804EB98
:10067000890028BF40F8042B08BF704748BF20F806
:10068000022B11F0804F18BF00F8012B70470000BB
:1006900001694A1C02610878704700B58FB0CDE946
:1006A00001310021059105497944CDE90310114636
:1006B0006846FFF70DFE0FB000BD0000E5FFFFFF2D
:1006C000007B00F08000704700487047F441002034
:1006D0007546FFF7F9FFAE4605006946534620F020
:1006E0000700854618B020B5FFF7D2FDBDE82040D1
:1006F0004FF000064FF000074FF000084FF0000BDE
:1007000021F00701AC46ACE8C009ACE8C009ACE890
:10071000C009ACE8C0098D46704710B50446AFF378
:1007200000802046BDE81040FFF752BD00B587B0FD
:1007300001214FF4027000F02BFF0120ADF80400FE
:1007400000208DF8070001A91D4800F087FB4FF439
:10075000804000F0F1FE0020029001208DF80C0096
:100760008DF80D004FF460200490002005900120CA
:100770008DF8180002A9134800F04AF80523012259
:100780000821104800F06CF801210E4800F01CF818
:100790000C4800F0C1F800BF0A4800F02EF800280D
:1007A000FAD1084800F0C8F800BF064800F017F872
:1007B0000028FAD10121034800F0B3F807B000BDCA
:1007C000000C01400024014021B1826842F0010286
:1007D000826003E0826822F0010282607047014675
:1007E00000208A6802F004020AB1012000E0002023
:1007F00070470146C86C80B27047014600208A6885
:1008000002F008020AB1012000E000207047000059
:1008100030B502460020002350680F4C20400D796F
:100820000C6844EA05242043506090680B4C20403B
:10083000D1E902542C434D7944EA450420439060A9
:10084000D06A20F470000C7C641EE4B2234340EABA
:100850000350D06230BD0000FFFEF0FFFDF7F1FF56
:10086000F0B504460D4600200021092D11DDE06899
:10087000A5F10A0606EB4607072606FA07F18843A4
:10088000A5F10A0606EB460603FA06F10843E06006
:100890000CE0206905EB4507072606FA07F18843B7
:1008A00005EB450603FA06F108432061072A0FDA33
:1008B000606B561E06EB86071F2606FA07F1884373
:1008C000561E06EB860605FA06F10843606322E031
:1008D0000D2A0FDA206BD61F06EB86071F2606FAB5
:1008E00007F18843D61F06EB860605FA06F1084392
:1008F000206310E0E06AA2F10D0606EB86071F26D2
:1009000006FA07F18843A2F10D0606EB860605FA02
:1009100006F10843E062F0BD816841F008018160A2
:10092000704721B1826842F4A002826003E08268CD
:1009300022F4A00282607047816841F00401816066
:10094000704700BFFEE7002904DA4A4211B22D22A7
:10095000027001E020220270642291FBF2F2303238
:10096000D3B2421C10461370642291FBF2F302FBD7
:1009700013110A2291FBF2F23032D3B2421C10461C
:1009800013700A2291FBF2F302FB131101F1300202
:10099000D3B2421C104613707047000010B50024FB
:1009A0001548006820F47040134908600846006844
:1009B00040F40040086004E0601CC4B2012001F073
:1009C00021FF0E48006808B1642CF5DB642C01DBC4
:1009D000012010BD002404E0601CC4B2012001F01D
:1009E00011FF0648006808B9642CF5DB642C01DBB4
:1009F0000120EEE70020ECE7040801402C01214231
:100A000008B50121042000F0C3FD4FF40060ADF8EB
:100A1000000010208DF8030003208DF802006946C5
:100A2000064800F01BFA4FF40061044800F0F5FAA4
:100A300000F05CF8FFF7B2FF08BD000000080140BD
:100A400010B5002404E0601CC4B2012001F0DAFEFD
:100A50000D48006808B1642CF5DB002404E0601C3C
:100A6000C4B2012001F0CEFE0748006808B9642C2A
:100A7000F5DB282001F0C6FE0348006808B101201C
:100A800010BD0020FCE700002C01214270B50024BD
:100A9000002506E06006040EFFF7D2FF0443681C41
:100AA000C5B2082DF6DB204670BD70B5044600F0D7
:100AB0001DF8FFF773FFA0B9002504E0FFF7E6FF7C
:100AC0006055681CC5B2052DF8DB207861780844B4
:100AD000A1780844E17808442179884203D10020B4
:100AE00070BD0120FCE70120FAE7000010B50C48BA
:100AF000006820F470400A4908600846006840F425
:100B000040500860002007490860142001F05AFE98
:100B100001200549C1F8AC011E2001F073FE10BD93
:100B200004080140AC0121420000214210B500241C
:100B30001548006820F0F000134908600846006876
:100B400040F08000086004E0601CC4B2012001F0A5
:100B500059FE0E48006808B1C82CF5DBC82C01DB33
:100B6000012010BD002404E0601CC4B2012001F08B
:100B700049FE0648006808B9F02CF5DBF02C01DBD3
:100B80000120EEE70020ECE7040C01402481214223
:100B90002DE9F04F87B000F0DDF800F0B9F8FFF76D
:100BA000C5FFCC2000F0E2F8BE2000F0DFF800F036
:100BB0009DF8834600F09AF80446072C08DDE043D0
:100BC000C4B26FEA0B0000F0FF0B4FF0000A01E027
:100BD0004FF0010AA1464FEA09200FFA80F909EB0C
:100BE0000B000FFA80F9484604F000FF019004F072
:100BF000D1FE074600220F4B04F0E4FC00220E4B0E
:100C0000CDE9020104F0DEFC00220C4BCDE9040129
:100C100004F092FA054604F08FFC0FFA80F9BAF15D
:100C2000000F03D0484607B0BDE8F08FC9F10000BF
:100C300000B2F8E70000B03F000059400000E03F7C
:100C400008B50121082000F0A3FC4FF40070ADF8B6
:100C5000000010208DF8030003208DF80200694683
:100C6000064800F0FBF84FF40071044800F0D5F995
:100C700000F04EF8FFF75AFF08BD0000000C0140DD
:100C800010B51748006820F0F000154908600846C4
:100C9000006840F03000086000201249086002201F
:100CA00001F0B0FD01201049C1F8A4010C48006812
:100CB00020F0F0000A4908600846006840F0800013
:100CC00008600C2001F09EFD06488038006808B1DD
:100CD000012400E00024322001F094FD204610BDE4
:100CE000040C0140A48121420080214270B50026FD
:100CF000012508E0FFF7C4FF0446E00140EA660072
:100D0000C6B2681CC5B2082DF4DD304670BD0000C7
:100D100010B50D48006820F0F0000B490860084647
:100D2000006840F03000086000200849086040F288
:100D3000EE2001F067FD01200549C1F8A4010F2054
:100D400001F060FD10BD0000040C0140A4812142AF
:100D50000080214210B5FFF7DBFFFFF7E7FECC2054
:100D600000F004F8442000F001F810BD70B504460E
:100D70001848006820F0F00016490860084600682E
:100D800040F030000860012520E004F00106641006
:100D90006EB1002010490860022001F033FD0120EF
:100DA0000E49C1F8A4013C2001F02CFD0CE000200C
:100DB000094908603C2001F025FD01200749C1F8E0
:100DC000A401022001F01EFD681CC5B2082DDCDD67
:100DD00070BD0000040C0140A4812142008021422A
:100DE0007047000010B50A2001F0ECFC0121054815
:100DF00000F008F910B904A0FFF75EFA012000F036
:100E000027F810BD000C0140202F2FCDE2B2BFD635
:100E1000D0B6CF302020B7FECEF1B3CCD0F20D0A41
:100E20000000000010B5042000F012F810BD10B54D
:100E30000A2001F0C7FC082000F00AF810BD10B528
:100E40000A2001F0BFFC102000F002F810BD0000E5
:100E50000149086070470000140401402DE9F04189
:100E6000024600250026002000230024002791F8D8
:100E700003C00CF00F0591F803C00CF0100CBCF18E
:100E8000000F03D091F802C04CEA050591F800C0AC
:100E9000BCF1000F31D0146800202BE04FF0010CA2
:100EA0000CFA00F3B1F800C00CEA03069E4220D110
:100EB00083004FF00F0C0CFA03F7BC4305FA03FC58
:100EC0004CEA040491F803C0BCF1280F06D14FF09E
:100ED000010C0CFA00FCC2F814C00AE091F803C03F
:100EE000BCF1480F05D14FF0010C0CFA00FCC2F820
:100EF00010C0401C0828D1D31460B1F800C0BCF168
:100F0000FF0F34DD546800202EE000F1080C4FF094
:100F1000010808FA0CF3B1F800C00CEA03069E427F
:100F200021D183004FF00F0C0CFA03F7BC4305FAF4
:100F300003FC4CEA040491F803C0BCF1280F05D16E
:100F400000F1080C08FA0CF8C2F8148091F803C0FC
:100F5000BCF1480F07D100F1080C4FF0010808FA66
:100F60000CF8C2F81080401C0828CED35460BDE8AD
:100F7000F0810000F0B50A4600230024002100257E
:100F800000F00046B6F1004F02D11D4EF16901E0BC
:100F90001B4E7168C0F3034583B200F44016B6F5EA
:100FA000401F08D121F07061154E766826F07066FA
:100FB000134F7E6012E000F48016B6F5801F06D154
:100FC000032606FA05F4A14341F0706106E0460DE0
:100FD000360103FA06F6B14341F0706122B1460DC5
:100FE000360103FA06F6314300F00046B6F1004F31
:100FF00002D1034EF16101E0014E7160F0BD0000CD
:10100000000001400246002093680B400BB1012014
:1010100000E000207047416170470161704700BFE8
:10102000FEE7000008B50121082000F0B1FA4020D9
:10103000ADF8000003208DF8020010208DF80300A9
:1010400069460848FFF70AFF8020ADF8000003203A
:101050008DF8020014208DF8030069460148FFF75F
:10106000FDFE08BD000C014010B540200A49086093
:1010700000F0D6F880200849091F086000F0D0F879
:1010800040200549091F086000F0CAF840200249C5
:10109000086000F0C5F810BD140C014070B50825BB
:1010A000002480201149086014E06006040E4020EE
:1010B0000E49091D086000F0B3F840200B49086094
:1010C00000F0AEF809480838006800F0800008B168
:1010D00044F00104281EA5F10101CDB2E5D1402064
:1010E0000249091D0860204670BD0000100C014037
:1010F00070B50446082519E040201149086000F049
:101100008FF804F0800020B180200D49091F08608D
:1011100002E080200A4908606006040E00F080F8B2
:1011200040200749091F086000F07AF8281EA5F141
:101130000101CDB2E0D140200149086070BD00003E
:10114000140C014010B5802013490860402008604D
:1011500000F066F810480838006808B9012000E07F
:10116000002000F0800008B1002010BD80200A4956
:10117000091D086000F054F807480838006800F0BE
:10118000800008B10020F0E780200349091D0860B5
:1011900000F046F80120E8E7100C014010B54020AF
:1011A0000A49086000F03CF880200849086000F017
:1011B00037F840200549091F086000F031F8802009
:1011C0000249091F086000F02BF810BD140C014003
:1011D00010B540201149086000F022F880200F4926
:1011E000091F086000F01CF840200C49091F086026
:1011F00000F016F809480C38006800F0800030B1A3
:1012000040200649086000F00BF8002010BD402087
:101210000249086000F004F80120F7E7140C0140CF
:1012200010B5032001F0EEFA10BD000010B520212A
:101230000748FFF7F2FE80210548FFF7EEFE802108
:101240000348FFF7E8FE20210148FFF7E4FE10BD48
:101250000008014010B520210548FFF7DEFE80217F
:101260000348FFF7D8FE80210148FFF7D6FE10BDE6
:101270000008014010B520210348FFF7CEFE2021D1
:101280000148FFF7C8FE10BD0008014010B5FFF788
:10129000C9FE0A2001F096FA80223E21D02000F0FB
:1012A00059FB07221521D02000F054FB1E221621E5
:1012B000D02000F04FFB00221721D02000F04AFB85
:1012C00000223E21D02000F045FB10BD01490880DE
:1012D00070470000382C014000BFFEE77047000057
:1012E00070B5002100230F22C47804B3154C246884
:1012F00004F4E064C4F5E064210AC1F10403CA40C7
:10130000447804FA03F184781440214309010E4C17
:101310000678A155047804F01F050124AC40057837
:101320006D11AD0005F1E025C5F8004109E0047834
:1013300004F01F050124AC40044D0678761145F8F1
:10134000264070BD0CED00E000E400E080E100E02C
:1013500002490143024A1160704700000000FA058B
:101360000CED00E02DE9F05F06460F4690461C4666
:10137000DDF828A04FF0000BE11704EB5171C91004
:10138000A4EBC10131B92046E11704EB5171C1F35F
:10139000C70506E02046E11704EB5171C910491C4E
:1013A000CDB23D4615E02946304600F0A5F8B146DD
:1013B0000BE059460BF1010B1AF80100012100F076
:1013C000AFF809F1010000F0FF09C145F1DB681C2D
:1013D000C5B2A542E7DBBDE8F09F000008B50121DA
:1013E000052000F0D5F80121480500F0D1F8A02033
:1013F000ADF8000010208DF8030003208DF80200E6
:1014000069463C48FFF72AFDA0213A48FFF705FE50
:101410004FF4487001F0D6F90021AE2000F080F8BA
:101420000021084600F07CF80021102000F078F838
:101430000021402000F074F80021B02000F070F886
:101440000021812000F06CF80021FF2000F068F8F6
:101450000021A12000F064F80021A62000F060F82F
:101460000021A82000F05CF800213F2000F058F88F
:101470000021C82000F054F80021D32000F050F8DB
:101480000021084600F04CF80021D52000F048F873
:101490000021802000F044F80021D82000F040F81E
:1014A0000021052000F03CF80021D92000F038F898
:1014B0000021F12000F034F80021DA2000F030F8AB
:1014C0000021122000F02CF80021DB2000F028F889
:1014D0000021302000F024F800218D2000F020F8B9
:1014E0000021142000F01CF80021AF2000F018F8B3
:1014F00008BD00000008014070B504460D4605F126
:10150000B000002100F00CF8102141EA1410002175
:1015100000F006F804F00F00002100F001F870BDA3
:1015200070B504460D461DB1E0B201F0F5F802E0D9
:10153000E0B201F0DBF870BD01460020034A5068BC
:1015400020F4404008435060704700000010024003
:1015500029B1064AD2690243044BDA6104E0034A26
:10156000D2698243014BDA617047000000100240EB
:1015700029B1064A12690243044B1A6104E0034A86
:1015800012698243014B1A6170470000001002404B
:1015900029B1064A92690243044B9A6104E0034A66
:1015A00092698243014B9A6170470000001002402B
:1015B00029B1064AD2680243044BDA6004E0034AC8
:1015C000D2688243014BDA6070470000001002408D
:1015D00030B500210022002400232D4D6D6805F058
:1015E0000C0121B1042905D0082923D105E0294D9A
:1015F000056022E0274D05601FE0254D6D6805F46C
:101600007012234D6D6805F48034022505EB92427B
:101610001CB9214D554305600BE01D4D6D6805F467
:1016200000351DB11C4D5543056002E0194D554371
:10163000056002E0174D056000BF00BF144D6D68E6
:1016400005F0F0010909154D6B5C0568DD4045604A
:101650000F4D6D6805F4E061090A104D6B5C45683B
:10166000DD4085600A4D6D6805F46051C90A0B4D77
:101670006B5C4568DD40C560054D6D6805F4404113
:10168000890B074D6B5CC568B5FBF3F5056130BD93
:101690000010024000127A0000093D0042140020B0
:1016A000521400202DE9F0471E21D02000F024F92B
:1016B0004C4908701D21D02000F01EF9494948709E
:1016C00008460078497840EA012000B2464908807F
:1016D0000846B0F9000003F05EFF06464FF06632A0
:1016E000424B03F0D1FD044603F026FF00B23E4911
:1016F00008802021D02000F0FFF83A4988701F218F
:10170000D02000F0F9F83749C87008468078C978C9
:1017100040EA012000B2364908800846B0F90000CE
:1017200003F039FF06464FF06632304B03F0ACFD54
:10173000044603F001FF00B22D4908802221D02089
:1017400000F0DAF8274908712121D02000F0D4F800
:101750002449487108460079497940EA012000B2DD
:10176000244908800846B0F9000003F014FF06463B
:101770004FF066321D4B03F087FD044603F0DCFE9C
:1017800000B21C4908801C21D02000F0B5F8154992
:1017900088711B21D02000F0AFF81249C8710846AB
:1017A0008079C97940EA012000B2134908800846CF
:1017B000B0F9000043F29031084403F0ECFE064615
:1017C00000220E4B03F060FD044600220C4B03F098
:1017D000B3FC804603F0B0FE00B207490880BDE8C4
:1017E000F0870000701500203A1400206666304033
:1017F0003C1400203E140020401400200080714062
:10180000008041400149088070470000342C0140AD
:1018100010B500F001F810BD0CB50020019000904B
:101820003348006840F480303149086000BF3048D8
:10183000006800F4003000900198401C019000986E
:1018400018B90198B0F5A06FF1D12948006800F4EB
:10185000003010B10120009001E0002000900098BD
:10186000012843D12348006840F010002149086056
:101870000846006820F0030008600846006840F051
:10188000020008601A4840681949486008464068E4
:1018900048600846406840F48060486008464068F8
:1018A00020F47C1048600846406840F4E810486026
:1018B0000846006840F08070086000BF0C4800686F
:1018C00000F000700028F9D00948406820F00300BB
:1018D000074948600846406840F00200486000BF81
:1018E0000348406800F00C000828F9D10CBD000046
:1018F000001002400020024070B504460D46FFF77C
:1019000021FC08B9002070BD2046FFF7F1FBFFF76E
:101910005FFC30B9FFF742FC01200D490870002040
:10192000F1E72846FFF7E4FBFFF752FCFFF70AFC5C
:10193000611CC8B2FFF7DCFBFFF74AFCFFF7AEFB08
:101940000646FFF791FBFFF729FC3046DBE7000076
:101950003814002070B506460C461546FFF7F2FB1A
:1019600008B9002070BD3046FFF7C2FBFFF730FC1E
:1019700018B9FFF713FC0020F4E72046FFF7B8FB87
:10198000FFF726FC2846FFF7B3FBFFF721FCFFF724
:1019900005FC00F0E3FE0120E4E7042808D14FF045
:1019A000E021096941F004014FF0E022116107E0F4
:1019B0004FF0E021096921F004014FF0E0221161AC
:1019C000704710B503F082F8012801D002F0D4FC72
:1019D00010BD000010B51348006840F00100114927
:1019E000086008464068104908400E4948600846AB
:1019F00000680E4908400B4908600846006820F45A
:101A0000802008600846406820F4FE0048604FF4DB
:101A10001F008860FFF7FCFE4FF00060044908607B
:101A200010BD0000001002400000FFF8FFFFF6FEAE
:101A300008ED00E030B589B005460C46012140F6BE
:101A40000900FFF7A5FD374800F0A0F94FF4C040AA
:101A5000ADF8200003208DF8220018208DF8230017
:101A600008A93148FFF7FAF9ADF81850ADF814405D
:101A70000020ADF81A00ADF8160005A9294800F0BD
:101A800049FB7020ADF804000120ADF806000420E9
:101A9000ADF808000020ADF80A000220ADF80C00F7
:101AA0000020ADF80E004FF48070ADF8100000205B
:101AB000ADF8120001A91B4800F076FA0821194878
:101AC00000F0BEFA7020ADF804000120ADF8060069
:101AD0000420ADF808000020ADF80A000220ADF89F
:101AE0000C000020ADF80E004FF48070ADF810002F
:101AF0000020ADF8120001A90A4800F0ABFA082155
:101B0000084800F0F9FA0121064800F015F9012112
:101B1000044800F02CF90121024800F01CF909B03A
:101B200030BD0000002C0140000C014010B5012127
:101B3000880700F01FFA012863D14248007848B9AD
:101B4000414800880A3840490880404800880A38DF
:101B50003E4908803B480078012809D13A4800886E
:101B60000A3039490880394800880A3037490880E6
:101B700037480078012820D13348008840F2B63138
:101B8000884202DC01202F4908702F48008840F26B
:101B9000AA51884202DB00202A4908702A4800889E
:101BA000B0F5966F04D12B480078401E2949087083
:101BB00025480088FFF726FE23E025480078022804
:101BC0001FD12248008840F21451884202DC0120D3
:101BD0001C4908701D48008840F26C71884202DB85
:101BE00000201849087019480088B0F5C86F04D162
:101BF00018480078401E1749087014480088FFF7FD
:101C000065FB0121880700F0A3F812480078C0B9ED
:101C10000F480078022804D14FF4C860FFF756FB44
:101C200007E00B480078012803D14FF49660FFF7D6
:101C3000E9FD00200649087000214FF0804000F0C7
:101C40008AF810BD26000020280000202A0000206D
:101C500024000020250000207FB505460C46012108
:101C60000846FFF775FC4FF0804000F08FF8ADF8A4
:101C70000850ADF804400020ADF80A00ADF80600A9
:101C800001A94FF0804000F045FA0122114690076B
:101C900000F081F91C208DF8000001208DF8010072
:101CA00000208DF8020001208DF803006846FFF740
:101CB00017FB0121880700F04EF800214FF080400B
:101CC00000F049F87FBD000010B50121064800F082
:101CD00051F9012802D105A0FEF7EEFA01210248D0
:101CE00000F036F810BD00000004004054494D20BB
:101CF0003320CAE4B3F62E2E2E2E2E2E2E0D0A00E1
:101D000010B50121064800F035F9012802D105A0DF
:101D1000FEF7D2FA0121024800F01AF810BD0000C7
:101D20000008004054494D203420CAE4B3F62E2E5A
:101D30002E2E2E2E2E0D0A0021B1028842F0800296
:101D4000028004E002884FF67F731A4002807047D9
:101D5000CA430282704721B1028842F00102028028
:101D600004E002884FF6FE731A400280704731B1DA
:101D7000B0F8442042F40042A0F8442005E0B0F856
:101D80004420C2F30E02A0F84420704710B5044668
:101D90006848844208D10121C014FFF709FC0021E2
:101DA000E014FFF705FCC4E0B4F1804F08D1012135
:101DB0000846FFF7DDFB00210120FFF7D9FBB8E063
:101DC0005D48844208D101210220FFF7D1FB0021A8
:101DD0000220FFF7CDFBACE05848844208D1012136
:101DE0000420FFF7C5FB00210420FFF7C1FBA0E0A2
:101DF0005348844208D101210820FFF7B9FB002194
:101E00000820FFF7B5FB94E04E48844208D1012139
:101E10001020FFF7ADFB00211020FFF7A9FB88E0A1
:101E20004948844208D101212020FFF7A1FB00216D
:101E30002020FFF79DFB7CE04448844208D101212B
:101E40004014FFF7B5FB00216014FFF7B1FB70E011
:101E50003F48844209D10121C804FFF7A9FB0021B2
:101E60004FF40020FFF7A4FB63E03A48844209D115
:101E700001210805FFF79CFB00214FF48010FFF7BC
:101E800097FB56E03448844209D101214805FFF709
:101E90008FFB00214FF40010FFF78AFB49E02F4829
:101EA000844208D101214020FFF762FB002140203D
:101EB000FFF75EFB3DE02A48844208D101218020E3
:101EC000FFF756FB00218020FFF752FB31E0254849
:101ED000844208D101218015FFF74AFB0021A0159B
:101EE000FFF746FB25E02048844209D10121080480
:101EF000FFF75EFB00214FF48030FFF759FB18E03D
:101F00001A48844209D101214804FFF751FB0021FE
:101F10004FF40030FFF74CFB0BE01548844208D12A
:101F200001218804FFF744FB00214FF48020FFF7D4
:101F30003FFB10BD002C01400004004000080040A1
:101F4000000C00400010004000140040003401402C
:101F5000004C014000500140005401400018004076
:101F6000001C0040002000400040014000440140AF
:101F70000048014030B50246002000230024158AA5
:101F800005EA0103958905EA010413B10CB10120AA
:101F900000E0002030BD1AB183890B43838102E049
:101FA00083898B438381704770B50024002200230E
:101FB000058C4FF6FE7635400584028C8388048BB1
:101FC0004FF68F752C40B51E2C400D882C43751E86
:101FD0002A400D892A434D882A43144DA8420BD02C
:101FE000134DA84208D0134DA84205D0124DA84267
:101FF00002D0124DA84213D14FF6F7752A404D89F1
:102000002A434FF6FB752A408D882A434FF6FF6519
:102010002B404FF6FF552B408D892B43CD892B4309
:1020200083800483CD888586028470BD002C0140A6
:10203000003401400040014000440140004801409C
:102040000A460021018B4FF6F773194011430183B3
:102050007047000070B5002400220023058C4FF665
:10206000EF7635400584028C8388048B48F6FF7533
:102070002C404FF6FF452C400D884FF6FF7606EAC0
:1020800005252C434FF6DF752A400D8906EA051514
:102090002A434D8806EA05152A43154DA84202D069
:1020A000144DA8421DD14FF67F752A404D894FF639
:1020B000FF7606EA05152A434FF6BF752A408D883C
:1020C00006EA05152A434FF6FF352B404FF2FF7500
:1020D0002B408D8906EA85052B43CD8906EA8505C7
:1020E0002B4383800483CD880587028470BD000064
:1020F000002C0140003401400A460021018B4FF2C0
:10210000FF7319404FF6FF7303EA0223194301835B
:1021100070470000002202881D4B98420ED01D4BD4
:1021200098420BD0B0F1804F08D01B4B984205D09D
:102130001A4B984202D01A4B984204D14FF68F7333
:102140001A404B881A43174B984207D0164B9842B7
:1021500004D04FF6FF431A40CB881A4302808B8885
:1021600083850B8803850A4B98420BD0094B984214
:1021700008D00E4B984205D00D4B984202D00D4B23
:10218000984201D10B7A03860123838270470000B5
:10219000002C0140003401400004004000080040D1
:1021A000000C0040001000400014004000400140BE
:1021B000004401400048014010B540F22551294833
:1021C00000F0A3F998B140F22551264800F027F914
:1021D000244800F055FA2449244A127888542348A8
:1021E0000078401C214908700846007808701F4894
:1021F0000078401E1C49085CFF2804D11B48007869
:10220000401E1B490870184819490978405CFF288E
:1022100016D116480078401E1349085CEE280FD1ED
:1022200012480078401E12490978401A1149087076
:1022300000200E4908700E49087001200E490870F0
:102240000821084800F054F901280AD1082105485E
:1022500000F0DCF8034800F013FA64210248FEF7AE
:1022600048F910BD003801407A15002061140020A3
:1022700060140020621400206314002010B540F2A6
:1022800025512D4800F041F998B140F225512A48D6
:1022900000F0C5F8284800F0F3F92849284A1278D8
:1022A000885427480078401C254908700846007863
:1022B000087023480078801E2049085C23280AD132
:1022C0001F480078401E085C262804D11C4800786E
:1022D000801E1C4908701A480078401E1949097868
:1022E000401A19490870154816490978405C232896
:1022F00010D113480078401E1049085C252809D1E8
:1023000011480078062805D100200D4908700120E9
:102310000E4908700821084800F0EAF801280AD19F
:102320000821054800F072F8034800F0A9F964217B
:102330000248FEF7DEF810BD00440040DE15002024
:102340006514002064140020661400206714002027
:1023500010B540F22551284800F0D7F898B140F266
:102360002551254800F05BF8234800F089F92349FE
:10237000234A1278885422480078401C204908706B
:102380000846007808701E480078401E1B49085C0B
:10239000FF2804D11A480078401E1A4908701748CF
:1023A00018490978405CFF2813D115480078401E71
:1023B0001249085CEE280CD111480078401E1149E2
:1023C0000978401A1049087000200D4908700D491D
:1023D00008700821084800F08BF801280AD108216C
:1023E000054800F013F8044800F04AF96421034856
:1023F000FEF77FF810BD00000048004042160020A4
:1024000069140020681400206A14002001F400728E
:10241000B2F5007F00D100BFCA430280704710B5FB
:102420000022002340F66A14A14200D100BF0A1224
:1024300001249440A3B2DC43048010BD21B1828901
:1024400042F40052828104E082894DF6FF731A4003
:102450008281704710B504462048844209D1012189
:102460008803FFF7A5F800214FF48040FFF7A0F89C
:1024700032E01B48844209D101214804FFF778F873
:1024800000214FF40030FFF773F825E0154884422F
:1024900009D101218804FFF76BF800214FF4802057
:1024A000FFF766F818E01048844209D10121C804FA
:1024B000FFF75EF800214FF40020FFF759F80BE01A
:1024C0000A48844208D101210805FFF751F800218C
:1024D0004FF48010FFF74CF810BD000000380140A9
:1024E0000044004000480040004C004000500040C4
:1024F00002460020B1F5007F00D100BF13880B40D9
:102500000BB1012000E00020704770B502460024A6
:1025100000230025002040F66A16B14200D100BF1A
:10252000C1F3421501F01F03012606FA03F3012D42
:1025300002D19689334006E0022D02D1168A33403B
:1025400001E0968A33400C12012606FA04F416883C
:10255000344013B10CB1012000E0002070BDF0B593
:102560000346002400260025002040F66A17B942E1
:1025700000D100BF1846C1F3421401F01F06012725
:1025800007FA06F5012C01D10C3004E0022C01D130
:10259000103000E014301AB107682F43076002E0E2
:1025A0000768AF430760F0BD2DE9F04786B00546E8
:1025B0000E460024A24600BFA1460027B08900B104
:1025C00000BF2F462C8A4CF6FF700440F08804436D
:1025D0002C82AC894EF6F3100440B0883189084350
:1025E000718908430443AC81AC8A4FF6FF40044034
:1025F000B0890443AC8201A8FEF7EAFF1F48874276
:1026000002D1DDF810A001E0DDF80CA0A88900F4EB
:10261000004040B10AEBCA0000EB0A1031684900E3
:10262000B0FBF1F807E00AEBCA0000EB0A103168D2
:102630008900B0FBF1F86420B8FBF0F00401200938
:10264000642101FB1089A88900F4004040B13220C8
:1026500000EBC900B0FBF1F000F00700044308E014
:10266000322000EB09106421B0FBF1F000F00F0004
:1026700004432C8106B0BDE8F0870000003801401B
:1026800001468888C0F308007047C1F308028280C1
:10269000704700BFFEE700002DE9F04105462C46DB
:1026A00020211148FEF7B7FC002619E0274607F065
:1026B0008007802F04D180210B48FEF7AEFC03E099
:1026C00080210948FEF7A7FC6006040E2021064879
:1026D000FEF7A3FC20210448FEF79DFC701CC6B247
:1026E000082EE3DBBDE8F0810008014010B5044688
:1026F000FEF79CFD7820FFF7CFFFFEF7BBFD002023
:10270000FFF7CAFFFEF7B6FD2046FFF7C5FFFEF74D
:10271000B1FDFEF79FFD10BD10B50446FEF786FD26
:102720007820FFF7B9FFFEF7A5FD4020FFF7B4FFC3
:10273000FEF7A0FD2046FFF7AFFFFEF79BFDFEF77B
:1027400089FD10BD00BF704705E0002002490870F8
:10275000012001F03BFBF8E70C00002010B505203C
:1027600000F030F810BD000010B50420FFF715F997
:10277000104800681049B0FBF1F0104908700D488E
:1027800000680D49B0FBF1F44FF47A704443012026
:102790000B4908804FF0E020006940F002004FF044
:1027A000E021086108464461006940F001000861C9
:1027B00010BD00001000002040420F005614002001
:1027C0005814002070B5044602F080F9012810D09A
:1027D0000B480088844206D309480088B4FBF0F512
:1027E000284601F0F3FA06480088B4FBF0F100FB3C
:1027F00011444FF47A7104FB01F000F003F870BD4E
:102800005814002070B5034600224FF0E026756989
:102810000D4E367803FB06F44FF0E026B16910E068
:102820004FF0E026B06988420BD0884202D20E1ADF
:10283000324402E02E1A0E4432440146A24200D332
:1028400000E0EDE700BF70BD5614002070B50446EF
:102850000D46E1B20548FFF718FF00BF03480088A6
:1028600000F080000028F9D0204670BD00380140FB
:102870001CB54FF44070FEF76BFDFFF775FF0121AB
:102880002248FEF777FBFEF7A9FD214808238022A6
:10289000002100900846FEF765FD40F2CF2140F28E
:1028A000E730FFF7D9F9472144F61F60FFF7C2F878
:1028B0004FF4E13000F092FF4FF4E13000F0E2FF1E
:1028C0004FF4165001F034F84FF49660FEF79AFF7B
:1028D0004FF4C860FEF7FAFC0121002000F098FEDA
:1028E000FDF724FFFEF78CF8FEF7AAF9FEF7CEFC01
:1028F0000848012100238022CDE9001006A10948E3
:1029000002F0B4F801F026FC00201CBD00023000EB
:10291000340000200000002073746172745F7461E1
:10292000736B0000713700082DE9F04105460E4633
:102930001C4807681C480068001D01F069F850B980
:102940001948006890F82C10012088401749096840
:10295000814316480160681C38B936B112480168D5
:10296000091D134801F092F81AE07C190E4800681E
:102970004460BC4207D20C480168091D0D4800683C
:1029800001F06AF80CE008480168091D0A4800686F
:1029900001F062F809480068844201D207480460E7
:1029A000BDE8F081801400206C1400208414002005
:1029B000B819002074140020701400209C1400200A
:1029C00010B5044601F06EF823480068401C224907
:1029D00008602248006840B9204804600846006842
:1029E00001280DD100F0ECF90AE01D48006838B963
:1029F0001A480068C06AE16A884201D81748046032
:102A000018480068401C1749086094F82C100120F1
:102A1000884015490968084313490860E16A01EBD9
:102A20008101124A02EB8100211D01F02FF801F013
:102A300085F80B48006868B108480068C06AE16A18
:102A4000884207D24FF0805009490860BFF34F8F8A
:102A5000BFF36F8F10BD00007C1400206C140020A9
:102A6000881400209814002084140020E816002008
:102A700004ED00E010B501F015F810480068D0B979
:102A80000F4800F0D9FF0F4800F0D6FF0C480E4960
:102A900008600C480D49086000221021052001F053
:102AA00085FC064908600846006820B108A1034873
:102AB000006801F04FF901F041F810BDB01400209A
:102AC000CC190020E0190020A8140020AC1400202C
:102AD000546D72510000000070B523E001F098FBC6
:102AE0001348006808B9012000E00020054602F004
:102AF00091F9BDB900F0D6FF0D48C068C468201D2B
:102B000000F086FF0B480068401E0A4908600A482A
:102B10000068401E0849086001F010F8204600F0E7
:102B200060F800BF044800680028D7D170BD0000DD
:102B3000A41900207C1400207814002070B50446ED
:102B40000D46206C70B1216CE0680844E06061685B
:102B5000E068884201D32068E0602846226CE16882
:102B6000FDF750FC70BD2DE9F04104460F461546B7
:102B70004FF00008A66B206C40B9206860BB60680D
:102B800002F072F880460020606025E07DB9394689
:102B9000226CA068FDF736FC216CA0680844A06098
:102BA000D4E90110884217D32068A06014E03946A8
:102BB000226CE068FDF726FC216CE068401AE060BA
:102BC0002168E068884203D2216C6068401AE060A6
:102BD000022D01D106B1761E701CA0634046BDE8EF
:102BE000F08110B50446206B00F0E8FF204600F0AD
:102BF000E5FF10BD0146084A126812680AB90122B1
:102C000000E000220A600A6822B9034A1268D2680A
:102C1000106800E000207047A814002030B54FF481
:102C20002053174800F007042CB1C01D20F0070006
:102C3000134C041B1B1B0246124C22600024114D36
:102C40006C60D018083820F007000F4C206000247A
:102C50000D4D2D686C600C4D2D682C601146441A8A
:102C60004C60094C24680C60084D4C682C60084D81
:102C70004C682C604FF00044064D2C6030BD0000C5
:102C8000F4190020BC140020C4140020CC1400202F
:102C9000C8140020D014002000BFFFF71DFF064815
:102CA00000680128F9D94FF0805004490860BFF34B
:102CB0004F8FBFF36F8FF0E7E816002004ED00E0C0
:102CC0002DE9F04106460D4617469846069C0DB97B
:102CD000246000E02760E66325640121204601F0BE
:102CE00093FC0020A064BDE8F08100002DE9FF5FA7
:102CF00081460F469246DDE90E6B109CAAF1010059
:102D0000216B01EB800828F0070808F0070008B9DC
:102D1000012000E0002028B940F22B321BA120A0A6
:102D2000FDF7CAFA002507E0795D04F1340041554A
:102D3000785D00B902E06D1C102DF5D300BF0021B5
:102D400043200155202E00D31F26E6626664002032
:102D5000A064201D00F07DFE04F1180000F079FE53
:102D60002461C6F12000A06164620020E06484F860
:102D7000500049464046039A00F038FC2060BBF101
:102D8000000F01D0CBF80040BDE8FF9F2E2E5C461F
:102D900072656552544F535C7461736B732E63009C
:102DA0004672656552544F53436F6E6669675F455F
:102DB00072726F723A25732C25640D0A00000000B0
:102DC00010B5002407E004EB84010F4A02EB8100F8
:102DD00000F032FE641C202CF5D30C4800F02CFED1
:102DE0000B4800F029FE0B4800F026FE0A4800F0D0
:102DF00023FE0A4800F020FE044809490860044800
:102E00000849086010BD0000E8160020681900207D
:102E10007C19002090190020A4190020B819002066
:102E2000701400207414002010B50146164800E00C
:102E3000006803688B42FBD30246436813448B420D
:102E400004D143684C682344436001460A464B68FA
:102E500013440468A34211D10C4C03682468A342B4
:102E600008D04B680468646823444B6003681B689F
:102E70000B6005E0054B1B680B6001E003680B600D
:102E8000884200D0016010BDBC140020C414002092
:102E90002DE9F04104460D4616461F464FF0000846
:102EA00065602461B5420CD8F01BA169884202D349
:102EB0004FF0010811E0211D0948006800F0CCFD29
:102EC0000BE0BE4204D2BD4202D34FF0010804E041
:102ED000211D0448006800F0BFFD4046BDE8F081B8
:102EE000AC140020A814002070B5054600F0DAFDEF
:102EF000A86B08B9012400E0002400F01FFE204662
:102F000070BD70B5054600F0CDFDA86BE96B884239
:102F100001D1012400E0002400F010FE204670BD25
:102F20002DE9F3410D460098846C00272CB940F63A
:102F3000CE121AA11EA0FDF7BFF9A06BE16B88426B
:102F400001D2012000E0002028B940F6CF1213A1E1
:102F500017A0FDF7B1F9A06BE16B88421BD294F981
:102F600045602A4669462046FFF7FDFD0746701C6E
:102F700060B9606A08B9012000E0002050B904F18E
:102F8000240001F0E5FE28B1012703E0701C40B2E7
:102F900084F8450000BF3846BDE8FC812E2E5C4613
:102FA00072656552544F535C71756575652E63008B
:102FB0004672656552544F53436F6E6669675F454D
:102FC00072726F723A25732C25640D0A000000009E
:102FD000F8B505460F4613480068C068C468201D50
:102FE00000F016FDE069012818D1A06941192B46AF
:102FF0003A462046FFF74CFF80B1002003462A46A0
:1030000001460090204601F0DFFF06462EB94FF43E
:10301000027205A10AA0FDF74FF900BF2046616AC0
:103020008847F8BDA81400202E2E5C4672656552B4
:10303000544F535C74696D6572732E630000000019
:103040004672656552544F53436F6E6669675F45BC
:1030500072726F723A25732C25640D0A000000000D
:10306000F0B587B070E0039800280CDA04AE2EB9F2
:1030700040F2E7223AA140A0FDF71EF9D6E9002070
:10308000B168904700BF039800285DDB059C60692C
:1030900008B9012000E0002010B9201D00F0B8FCA4
:1030A00002A800F0CFF8054603980A284AD2DFE8C4
:1030B00000F00905072C2E4506082D2F00BF00BF84
:1030C00000BF00BF0498A269811803462A46204623
:1030D000FFF7DEFEC0B12046616A8847E06901283B
:1030E00012D1002000900498A169421800231946CB
:1030F000204601F069FF07462FB940F2213218A19E
:103100001DA0FDF7D9F800BF1DE000BF1BE000BF08
:103110000498A061A06908B1012000E0002028B94E
:103120004FF44E720EA114A0FDF7C6F8A069411924
:103130002B462A462046FFF7ABFE04E0204600F06F
:103140003DFD00E000BF00BF00231A4603A912485E
:10315000006801F06DF9002885D107B0F0BD0000CE
:103160002E2E5C4672656552544F535C74696D65D2
:1031700072732E63000000004672656552544F530F
:10318000436F6E6669675F4572726F723A25732C82
:1031900025640D0A00000000B0140020F8B50546B3
:1031A0000C4601F035F8684600F04CF806460098E9
:1031B00020BB44B9B54206D801F02CFE3146284662
:1031C000FFF706FF1CE03CB10E480068006808B934
:1031D000012000E000200446A91B22460A4800689E
:1031E00000F0CEFD01F016FE50B94FF080500749B7
:1031F0000860BFF34F8FBFF36F8F01E001F00AFE4D
:10320000F8BD0000AC140020B014002004ED00E074
:103210000A490968096809B9012100E0002121B1C2
:103220004FF0FF31064A116006E004490968C96899
:10323000C868034A4168116070470000701400209C
:103240009C14002070B5044601F050FC0546074868
:103250000068854204D200F00BF80120206001E0F4
:103260000020206001480560284670BDB814002089
:103270002DE9F8432DE021480068C06805681F4823
:103280000068C068C468201D00F0C2FB2046616A67
:103290008847E06901281CD1A0694619AE4207D9C8
:1032A00066602461211D1548006800F0D5FB10E020
:1032B000002003462A4601460090204601F084FE85
:1032C00007462FB940F292320DA113A0FCF7F4FF8C
:1032D00000BF0A480068006808B9012000E000202B
:1032E0000028C8D00548D0F800801348006803497A
:1032F00008601148C0F80080BDE8F883A8140020D9
:103300002E2E5C4672656552544F535C74696D6530
:1033100072732E63000000004672656552544F536D
:10332000436F6E6669675F4572726F723A25732CE0
:1033300025640D0A00000000AC1400200B48006852
:10334000401C08B9012000E0002020B9F42208A1A7
:1033500012A0FCF7B1FF00BF602080F31188BFF31B
:103360004F8FBFF36F8F00BF00BFFEE7D414002064
:103370002E2E5C4672656552544F535C706F7274AA
:1033800061626C655C525644535C41524D5F434DE3
:10339000335C706F72742E630000000046726565C6
:1033A00052544F53436F6E6669675F4572726F7216
:1033B0003A25732C25640D0A0000000008B500BFF3
:1033C0006846FFF717FC044620460099FFF7E6FE23
:1033D000FFF746FEF4E770B5044600F063FB94F98E
:1033E00045501AE0A06C38B100212046FFF798FD47
:1033F00088B100F0BBFD0EE0606A08B9012000E072
:10340000002038B904F1240001F0A2FC18B100F04A
:10341000ADFD00E003E0681E45B2002DE2DC00BF18
:10342000FF2084F8450000F089FB00F03BFB94F995
:10343000445010E0206908B9012000E0002048B99C
:1034400004F1100001F084FC08B100F08FFD681E4B
:1034500045B200E001E0002DECDC00BFFF2084F865
:10346000440000F06BFB70BD2DE9F04104464FF0C5
:10347000000800F0CDFE3E48006808B9FFF7CEFB1B
:103480003C480068204000285FD1A4B1083404F013
:10349000070080B104F00700C0F10800044404F004
:1034A000070008B9012000E0002020B9BF2232A1A6
:1034B0003BA0FCF701FF002C47D041480068844244
:1034C00043D8404E3046056801E02E462D686868B6
:1034D000A04202D228680028F7D12548006885421A
:1034E00033D0306800F10808286830606868001B35
:1034F000102813D92F1907F0070008B9012000E0A0
:10350000002020B9EC221CA125A0FCF7D5FE68689C
:10351000001B78606C603846FFF786FC28496868B5
:103520000968081A2649086008460068264909689B
:10353000884203D222480068234908600D49686820
:103540000968084368600020286001F063FC08F007
:10355000070008B9012000E0002028B94FF4967256
:1035600005A10FA0FCF7A8FE4046BDE8F0810000D1
:10357000C4140020D01400202E2E5C4672656552C3
:10358000544F535C706F727461626C655C4D656D15
:103590004D616E675C686561705F342E630000008A
:1035A0004672656552544F53436F6E6669675F4557
:1035B00072726F723A25732C25640D0A00000000A8
:1035C000C8140020BC140020CC1400200648006859
:1035D00030B10549096801F14800896C491C016056
:1035E00001480068704700006C140020001F4FF075
:1035F00080730360001F21F001030360001F034B71
:103600000360143802602038704700003D33000822
:1036100070B505460C4655200849487008700520CD
:1036200088700620C87008460571447120128871A0
:103630000721024800F0D4F970BD0000E01400201A
:103640001CB501A8FDF731FA9DF804002649088051
:103650002648FDF7CEF824494880FDF799FA642101
:1036600090FBF1F020498880FEF71CF82048B0F963
:1036700000102048FDF767F91FA0FCF71DFE1D484C
:10368000C07800901B488378427801781EA0FCF730
:1036900013FE2348B0F900101648FDF754F91548F9
:1036A000C078009013488378427801781DA0FCF719
:1036B00003FE2248B0F900100E48FDF744F90D480A
:1036C000C07800900B488378427801781CA0FCF702
:1036D000F3FD2148B0F900100648FDF734F905491B
:1036E0001EA0FCF7E9FD1CBD2C00002000240140B9
:1036F0003A14002034140020204D5055333035301A
:10370000203A200D0A000000202020202078D6E159
:10371000203A202025632563256325630D0A0000D8
:103720003C140020202020202079D6E1203A2020BF
:1037300025632563256325630D0A00003E140020E0
:1037400020202020207AD6E1203A202025632563FE
:10375000256325630D0A000040140020202020204E
:1037600020CEC2B6C8203A202025730D0A000000E2
:103770001CB5044600F096F90D4803210023802271
:10378000CDE900100BA10E4801F070F90D4803219E
:1037900000234FF48072CDE900100BA10D4801F019
:1037A00065F90D48006800F053FB00F0C7F91CBD37
:1037B000040000206C65645F7461736B000000009E
:1037C0007D500008080000206379636C655F7461B8
:1037D000736B0000492700080000002010B586B078
:1037E0000446012144F20500FDF7D2FE2348FEF70E
:1037F00031FE4FF40070ADF8140003208DF8160070
:1038000018208DF8170005A91D48FDF727FB4FF478
:103810008060ADF8140048208DF8170005A91848FD
:10382000FDF71CFB25208DF8100003208DF81100FA
:1038300000208DF8120001208DF8130004A8FDF778
:103840004FFD00940020ADF80400ADF80600ADF87F
:103850000800ADF80C000C20ADF80A0069460748D6
:10386000FEF7A2FE012240F225510448FEF777FE42
:1038700001210248FEF7E2FD06B010BD003801400C
:103880000008014010B586B0044601214804FDF748
:103890005FFE01210520FDF77BFE2348FEF7DAFDE0
:1038A0000420ADF8140003208DF8160018208DF8C0
:1038B000170005A91D48FDF7D1FA0820ADF814003E
:1038C00048208DF8170005A91848FDF7C7FA2620EB
:1038D0008DF8100003208DF8110000208DF81200E3
:1038E00001208DF8130004A8FDF7FAFC00940020D5
:1038F000ADF80400ADF80600ADF80800ADF80C0016
:103900000C20ADF80A0069460748FEF74DFE01227B
:1039100040F225510448FEF722FE01210248FEF73D
:103920008DFD06B010BD00000044004000080140BD
:1039300010B586B0044601210920FDF729FE0121BA
:103940008804FDF705FE2448FEF784FD4FF48060EF
:10395000ADF8140003208DF8160018208DF817001C
:1039600005A91E48FDF77AFA4FF40060ADF814007F
:1039700048208DF8170005A91848FDF76FFA272091
:103980008DF8100003208DF8110000208DF8120032
:1039900001208DF8130004A8FDF7A2FC009400207C
:1039A000ADF80400ADF80600ADF80800ADF80C0065
:1039B0000C20ADF80A0069460748FEF7F5FD012224
:1039C00040F225510448FEF7CAFD01210248FEF7E6
:1039D00035FD06B010BD000000480040000C01405D
:1039E00070B504460D460BE000BF0848008800F0A3
:1039F00040000028F9D014F8011B0448FEF745FEEA
:103A0000281EA5F10101CDB2EED170BD00480040E5
:103A100001460A69D1E901309860D1E90103586093
:103A20005068884201D188685060002008611068A1
:103A3000401E10601068704700F1080141604FF0AF
:103A4000FF31816000F10801C16001610021016066
:103A5000704700210161704710B502460B685C1C7D
:103A60000CB9106907E002F1080000E04068446802
:103A700024689C42FAD944684C604C68A160886014
:103A800041600A611468641C146010BD42684A6099
:103A900093688B60936859609160086103685B1C50
:103AA0000360704710B500BF602080F31188BFF33A
:103AB0004F8FBFF36F8F00BF0B480068401C0A494F
:103AC00008600846006801280DD108480068C0B2A7
:103AD00008B9012000E0002028B94FF4BD7204A10C
:103AE0000EA0FCF7E9FB10BDD414002004ED00E0AB
:103AF0002E2E5C4672656552544F535C706F727423
:103B000061626C655C525644535C41524D5F434D5B
:103B1000335C706F72742E6300000000467265653E
:103B200052544F53436F6E6669675F4572726F728E
:103B30003A25732C25640D0A0000000010B50B48CF
:103B4000006828B940F2811209A114A0FCF7B4FB67
:103B500006480068401E054908600846006820B90C
:103B6000002080F3118800BF00BF10BDD4140020D6
:103B70002E2E5C4672656552544F535C706F7274A2
:103B800061626C655C525644535C41524D5F434DDB
:103B9000335C706F72742E630000000046726565BE
:103BA00052544F53436F6E6669675F4572726F720E
:103BB0003A25732C25640D0A0000000070B50646F6
:103BC0003546002E35D0083D2C461A4960680968F4
:103BD000084008B1012000E0002028B94FF4A0728D
:103BE00015A11FA0FCF768FB206808B9012000E0C0
:103BF000002028B940F241120FA119A0FCF75CFB8C
:103C00000C4960680968084098B1206888B909497A
:103C1000606809688843606000F0FAFA18496068D3
:103C200009680844164908602046FFF7FDF801F0CE
:103C3000F1F870BDD01400202E2E5C4672656552DE
:103C4000544F535C706F727461626C655C4D656D4E
:103C50004D616E675C686561705F342E63000000C3
:103C60004672656552544F53436F6E6669675F4590
:103C700072726F723A25732C25640D0A00000000E1
:103C8000C8140020064800684FF47A71B0FBF1F0C8
:103C9000401E4FF0E0214861072008617047000096
:103CA0001000002070B5FCF7E1FA0546102D11D385
:103CB00005F1E02090F8F04310480078844201DBE1
:103CC000012000E0002028B94FF42A720CA117A0AF
:103CD000FCF7F2FA1D48006800F4E0601C4909682E
:103CE000884201D8012000E0002028B94FF42E724C
:103CF00003A10EA0FCF7E0FA70BD0000D81400206C
:103D00002E2E5C4672656552544F535C706F727410
:103D100061626C655C525644535C41524D5F434D49
:103D2000335C706F72742E6300000000467265652C
:103D300052544F53436F6E6669675F4572726F727C
:103D40003A25732C25640D0A000000000CED00E0FC
:103D5000DC140020024600200BE0084B53F8303002
:103D600033B9064B43F8301003EBC0035A6002E04E
:103D7000401C0828F1D300BF70470000A81600209F
:103D80002DE9F04105460E4617462C46FFF78AFE00
:103D900094F94400401C10B9002084F8440094F9C0
:103DA0004500401C10B9002084F84500FFF7C6FE0E
:103DB000A06B28B93A46314604F1240000F00EF910
:103DC0002046FFF708FBBDE8F081000070B504460F
:103DD0000025ACB10F48006808B9012000E00020C0
:103DE00028B940F2CF420CA110A0FCF765FA00F010
:103DF0000FFA00212046FEF797FD01F00BF805466B
:103E00003DB94FF0805011490860BFF34F8FBFF3A9
:103E10006F8F70BDA41400202E2E5C467265655213
:103E2000544F535C7461736B732E63004672656507
:103E300052544F53436F6E6669675F4572726F727B
:103E40003A25732C25640D0A0000000004ED00E003
:103E500070B50546FFF726FE15B92D48006800E04D
:103E600028460446201DFFF7D3FD78B9E06A00EB31
:103E70008000284951F8200040B994F82C10012006
:103E8000884025490968814323480160A06A18B128
:103E900004F11800FFF7BCFD20480068401C1F49D2
:103EA00008601B480068844209D1211D1C48FFF7A7
:103EB000EDFD1C480068401C1A49086009E01A48DA
:103EC0000068401E184908602046FEF78AFEFFF78A
:103ED0009FF9FFF733FE15480068C0B10C48006831
:103EE000844214D11248006808B9012000E0002083
:103EF00028B940F265420FA113A0FCF7DDF94FF09D
:103F0000805019490860BFF34F8FBFF36F8F70BDAA
:103F10006C140020E816002084140020981400205F
:103F2000A4190020781400207C140020881400209C
:103F3000A41400202E2E5C4672656552544F535CCB
:103F40007461736B732E63004672656552544F53F0
:103F5000436F6E6669675F4572726F723A25732CA4
:103F600025640D0A0000000004ED00E00120014975
:103F7000086070479014002070B504460D462CB9B7
:103F800040F6063207A10CA0FCF796F9124801682A
:103F900018312046FFF760FD01212846FEF7C4FCDA
:103FA00070BD00002E2E5C4672656552544F535C06
:103FB0007461736B732E63004672656552544F5380
:103FC000436F6E6669675F4572726F723A25732C34
:103FD00025640D0A000000006C14002070B5054631
:103FE0000E4614462DB940F6313209A10DA0FCF75A
:103FF00063F91448016818312846FFF747FD0CB1F2
:104000004FF0FF3621463046FEF78EFC70BD0000B3
:104010002E2E5C4672656552544F535C7461736B0F
:10402000732E63004672656552544F53436F6E663C
:1040300069675F4572726F723A25732C25640D0AA9
:10404000000000006C14002070B505462C46002DC1
:104050004BD02649E06A0968C96A884245D2A069FE
:1040600000F0004028B921480068C06AC0F1200073
:10407000A061E16A01EB81011D4A02EB81016069E7
:10408000884201D1012000E0002050B3201DFFF73D
:10409000BFFC78B9E06A00EB8000154951F82000B8
:1040A00040B994F82C1001208840124909688143D6
:1040B000104801600D480068C06AE06294F82C1056
:1040C000012088400B49096808430A490860E16AF1
:1040D00001EB8101064A02EB8100211DFFF7D6FCAE
:1040E00003E002480068C06AE06270BD6C14002002
:1040F000E81600208414002010B504462CB940F6C0
:10410000C13205A109A0FCF7D7F81048006820606B
:104110000F480068606010BD2E2E5C4672656552C7
:10412000544F535C7461736B732E63004672656504
:1041300052544F53436F6E6669675F4572726F7278
:104140003A25732C25640D0A000000009414002009
:10415000801400201CB51A4800210B468022CDE9AE
:10416000001018A1194800F081FC0446012C02D16E
:1041700000F0E8FE0446012C15D100BF602080F35A
:104180001188BFF34F8FBFF36F8F00BF4FF0FF3029
:104190000F49086001200F49086000200E4908609F
:1041A00000F09AF80BE0601C08B1012000E000204C
:1041B00028B940F2847209A10DA0FCF77DF81CBD5E
:1041C000A014002049444C4500000000992C000830
:1041D0009C14002088140020801400202E2E5C46A1
:1041E00072656552544F535C7461736B732E630038
:1041F0004672656552544F53436F6E6669675F45FB
:1042000072726F723A25732C25640D0A000000004B
:1042100002480068401C014908607047A41400204F
:1042200010B51B48006818B101201A4908602DE03C
:1042300000201849086018480068B0FA80F0C0F102
:104240001F0404EB8400154951F8200008B1012037
:1042500000E0002028B940F6F62211A115A0FCF7D5
:104260002BF804EB84010D4A02EB81004168496898
:10427000416000F1080142688A4202D14168496800
:1042800041604168C968134A116000BF10BD000059
:10429000A41400209014002084140020E8160020AC
:1042A0002E2E5C4672656552544F535C7461736B7D
:1042B000732E63004672656552544F53436F6E66AA
:1042C00069675F4572726F723A25732C25640D0A17
:1042D000000000006C1400201CB52248014609783B
:1042E0000191FF21024611700146097800919DF865
:1042F000001001F060011C4A117007211B4A116077
:1043000009E01A490968491E184A11609DF8001011
:104310004906090E00919DF8001001F080018029E6
:10432000EFD0124909680902104A11601146098844
:1043300001F4E06111600B4A019911700C480068AA
:1043400040F470000A4908600846006840F0704078
:104350000860FFF797FC002006490860FBF750FF54
:1043600000201CBD00E400E0D8140020DC14002074
:1043700020ED00E0D414002010B500BF602080F3D1
:104380001188BFF34F8FBFF36F8F00BF00F0B4FBF6
:1043900018B14FF080500449086000BF002080F33E
:1043A000118800BF10BD000004ED00E02DE9F843C6
:1043B00005460E4690460DB1012000E0002028B9C8
:1043C0004FF4C4720DA112A0FBF776FF0EB90027BF
:1043D00001E005FB06F707F14C00FFF745F804463E
:1043E00044B104F14C0943464A46314628460094FC
:1043F000FEF766FC2046BDE8F88300002E2E5C46E2
:1044000072656552544F535C71756575652E630016
:104410004672656552544F53436F6E6669675F45D8
:1044200072726F723A25732C25640D0A0000000029
:104430002DE9FF4782B005460E461F464FF0000AA1
:104440002C462CB940F2DC4261A166A0FBF734FF98
:104450000EB9206C08B9012000E0002028B940F214
:10446000DD425BA15FA0FBF727FF00F02FFB08B93F
:10447000049808B9012000E0002028B94FF49C629C
:1044800053A158A0FBF718FF00BFFFF70BFBD4F8B0
:104490003890B9F1000F3DD0D4F80C803146204659
:1044A000FEF74CFBDFB9A9F10100A063206810B949
:1044B000FFF78CF86060206908B9012000E0002057
:1044C00010BB04F1100000F043FCE8B14FF0805045
:1044D0004C490860BFF34F8FBFF36F8F14E0C4F8EF
:1044E0000C80606A08B9012000E0002060B904F186
:1044F000240000F02DFC38B14FF080504149086095
:10450000BFF34F8FBFF36F8FFFF718FB012006B08B
:10451000BDE8F087049818B9FFF710FB0020F6E714
:10452000BAF1000F04D16846FFF7E6FD4FF0010A2B
:10453000FFF704FBFFF76CFEFFF7B4FA94F94400B1
:10454000401C10B9002084F8440094F94500401C38
:1045500010B9002084F84500FFF7F0FA04A9684676
:1045600000F02CFA40BB2046FEF7BEFCF0B12068FC
:1045700030B9FFF797FA6068FFF766FDFFF7DEFADC
:1045800004F124000499FFF7F7FC2046FEF723FF0F
:1045900000F040FC00287FF478AF4FF080501949BC
:1045A0000860BFF34F8FBFF36F8F6EE72046FEF7B3
:1045B00012FF00F02FFC68E72046FEF70CFF00F02A
:1045C00029FC2046FEF790FC0028EED000209EE754
:1045D0002E2E5C4672656552544F535C717565753D
:1045E000652E63004672656552544F53436F6E6685
:1045F00069675F4572726F723A25732C25640D0AE4
:104600000000000004ED00E070B505460E462C46A3
:104610002CB940F21B121EA122A0FBF74DFEFFF7A2
:1046200041FAD4E90F12206801FB0200606000200B
:10463000A0632068A060E06B401E226C216800FB34
:104640000210E060FF2084F8440084F845009EB921
:10465000206908B9012000E00020A8B904F1100089
:1046600000F076FB80B14FF0805016490860BFF330
:104670004F8FBFF36F8F07E004F11000FFF7DCF9F5
:1046800004F12400FFF7D8F9FFF758FA012070BDB4
:104690002E2E5C4672656552544F535C717565757C
:1046A000652E63004672656552544F53436F6E66C4
:1046B00069675F4572726F723A25732C25640D0A23
:1046C0000000000004ED00E02DE9FF4383B0064642
:1046D00088461D464FF0000934462CB940F2D922D5
:1046E00060A165A0FBF7E8FDB8F1000F01D1206CD7
:1046F00008B9012000E0002028B940F2DA2259A1CF
:104700005DA0FBF7D9FD022D02D1E06B012801D19C
:10471000012000E0002028B940F2DB2251A156A080
:10472000FBF7CAFD00F0D2F908B9059808B90120D5
:1047300000E0002028B940F2DE224AA14EA0FBF79B
:10474000BBFD00BFFFF7AEF9A06BE16B884201D360
:10475000022D38D12A4641462046FEF704FA074684
:10476000A06C68B129462046FEF7DAFB28B34FF06B
:10477000805049490860BFF34F8FBFF36F8F1CE033
:10478000606A08B9012000E0002068B904F1240043
:1047900000F0DEFA88B14FF080503F490860BFF367
:1047A0004F8FBFF36F8F08E03FB14FF080503A4911
:1047B0000860BFF34F8FBFF36F8FFFF7BFF9012082
:1047C00007B0BDE8F083059818B9FFF7B7F90020E6
:1047D000F6E7B9F1000F04D101A8FFF78DFC4FF007
:1047E0000109FFF7ABF9FFF713FDFFF75BF994F948
:1047F0004400401C10B9002084F8440094F945009E
:10480000401C10B9002084F84500FFF797F905A96E
:1048100001A800F0D3F8F0B92046FEF772FBA0B172
:1048200004F110000599FFF7A7FB2046FEF7D3FD22
:1048300000F0F0FA002885D14FF08050164908604A
:10484000BFF34F8FBFF36F8F7CE72046FEF7C3FDAA
:1048500000F0E0FA76E72046FEF7BDFD00F0DAFA58
:104860000020ADE72E2E5C4672656552544F535CB6
:1048700071756575652E63004672656552544F53B8
:10488000436F6E6669675F4572726F723A25732C6B
:1048900025640D0A0000000004ED00E02DE9F05F42
:1048A00080468A4615461E4644462CB940F29F3241
:1048B00035A13AA0FBF700FDBAF1000F01D1206C41
:1048C00008B9012000E0002028B94FF468722EA139
:1048D00032A0FBF7F1FC022E02D1E06B012801D1DE
:1048E000012000E0002028B940F2A13226A12BA02F
:1048F000FBF7E2FCFFF7D6F900BF6021EFF3118070
:1049000081F31188BFF34F8FBFF36F8F00BF07464E
:10491000A06BE16B884201D3022E2BD194F945B0F4
:10492000324651462046FEF71EF90BF10100C8B988
:10493000A06C40B131462046FEF7F2FAB8B1B5B1ED
:104940000120286013E0606A08B9012000E000201F
:1049500068B904F1240000F0FBF940B13DB1012039
:10496000286004E00BF1010040B284F845004FF0EC
:10497000010901E04FF0000900BF87F3118800BF73
:104980004846BDE8F09F00002E2E5C4672656552D9
:10499000544F535C71756575652E6300467265658D
:1049A00052544F53436F6E6669675F4572726F7200
:1049B0003A25732C25640D0A000000002DE9F04112
:1049C00004460D462CB940F6CB3219A11DA0FBF7C9
:1049D00073FC2DB940F6CC3215A11AA0FBF76CFC84
:1049E000FFF760F81F4807682868401C08B90026D0
:1049F00019E01D4920680968884204D06068B842FF
:104A000001D801260FE06068381A2968884209D267
:104A100028686168791A401A28602046FFF76CFB05
:104A2000002600E00126FFF789F83046BDE8F08156
:104A30002E2E5C4672656552544F535C7461736BE5
:104A4000732E63004672656552544F53436F6E6612
:104A500069675F4572726F723A25732C25640D0A7F
:104A60000000000080140020941400202DE9FF4F66
:104A700085B0804689461746DDE912ABB800FEF7DF
:104A8000F3FC064656B15420FEF7EEFC04460CB18A
:104A9000266304E03046FFF791F800E000247CB183
:104AA0000020CDE900ABCDE902403A4649464046F8
:104AB000089BFEF71BF92046FDF782FF012501E068
:104AC0004FF0FF35284609B0BDE8F08F0549096869
:104AD00009B9012005E00449096809B9022000E08C
:104AE0000020704788140020A414002001490868A1
:104AF00070470000801400202DE9F0414FF00008BD
:104B000041480068002872D140480068451C3F4871
:104B10000560EDB93E480068006808B9012000E072
:104B2000002028B940F6D9123AA13FA0FBF7C4FBF8
:104B300037480768444800683549086042480760BC
:104B400042480068401C41490860FEF761FB00BF15
:104B50003F48006885423CD300BF2D48006800688C
:104B600008B9012000E0002020B14FF0FF303849A3
:104B700008602DE026480068C068C4686668B542D1
:104B800002D23348066023E0201DFEF741FFA06AF1
:104B900018B104F11800FEF73BFF94F82C10012027
:104BA00088402C49096808432A490860E16A01EBFA
:104BB0008101294A02EB8100211DFEF767FF274989
:104BC000E06A0968C96A8842C7D34FF00108C4E7A0
:104BD00000BF22480068C06A00EB80001E4951F8FF
:104BE0002000012801D94FF0010805E0FFE71C482B
:104BF0000068401C1A4908601A48006808B14FF064
:104C000001084046BDE8F081A41400208014002073
:104C1000701400202E2E5C4672656552544F535C12
:104C20007461736B732E63004672656552544F5303
:104C3000436F6E6669675F4572726F723A25732CB7
:104C400025640D0A00000000741400209414002054
:104C50009C14002084140020E81600206C1400200E
:104C60008C1400209014002070B505462C460026B8
:104C7000002D4BD026480068844201D1012000E07D
:104C8000002028B940F6C76222A127A0FBF714FB39
:104C9000A06C28B940F6C9621EA123A0FBF70CFB4B
:104CA000A06C401EA064616CE06A88422ED0A06CAB
:104CB00060BB201DFEF7ACFE78B9E06A00EB800017
:104CC000214951F8200040B994F82C100120884067
:104CD0001E49096881431D480160606CE062E06A1A
:104CE000C0F12000A06194F82C10012088401749E1
:104CF0000968084315490860E16A01EB8101124A1D
:104D000002EB8100211DFEF7C1FE0126304670BD79
:104D10006C1400202E2E5C4672656552544F535C15
:104D20007461736B732E63004672656552544F5302
:104D3000436F6E6669675F4572726F723A25732CB6
:104D400025640D0A00000000E816002084140020ED
:104D500070B50646F068C4682CB940F661321AA1F5
:104D60001EA0FBF7A9FA04F11800FEF751FE234834
:104D70000068A8B9201DFEF74BFE94F82C10012006
:104D800088401F49096808431D490860E16A01EB32
:104D900081011C4A02EB8100211DFEF777FE04E031
:104DA00004F118011848FEF771FE1849E06A096815
:104DB000C96A884204D9012501201549086000E02C
:104DC0000025284670BD00002E2E5C467265655297
:104DD000544F535C7461736B732E63004672656548
:104DE00052544F53436F6E6669675F4572726F72BC
:104DF0003A25732C25640D0A00000000A41400203D
:104E000084140020E8160020901900206C14002063
:104E10009014002070B5002400263448006828B99A
:104E20004FF4FD6232A137A0FBF746FAFEF73AFED7
:104E30002E480068401E2D4908600846006800287A
:104E40004FD13848006800284BD024E03648C0686D
:104E5000C46804F11800FEF7DBFD201DFEF7D8FD45
:104E600094F82C10012088403049096808432F49E4
:104E70000860E16A01EB81012D4A02EB8100211DEE
:104E8000FEF704FE2B49E06A0968C96A884202D32A
:104E90000120294908602448006808B9012000E081
:104EA00000200028D2D00CB1FEF7B2F923480568E3
:104EB00065B100BFFFF720FE10B101201E49086058
:104EC0006D1E002DF6D100201C4908601A480068AC
:104ED00038B1012630071A490860BFF34F8FBFF37E
:104EE0006F8FFEF72BFE304670BD0000A41400202B
:104EF0002E2E5C4672656552544F535C7461736B21
:104F0000732E63004672656552544F53436F6E664D
:104F100069675F4572726F723A25732C25640D0ABA
:104F2000000000007C140020901900208414002050
:104F3000E81600206C140020901400208C1400202F
:104F400004ED00E01CB50024FDF794FD0B4800685B
:104F500058B10B481F2100234FF48072CDE9001097
:104F600008A10A48FFF782FD04462CB940F233122B
:104F700007A10DA0FBF7A0F920461CBDB01400202E
:104F8000B4140020546D722053766300BD330008C2
:104F90002E2E5C4672656552544F535C74696D6584
:104FA00072732E63000000004672656552544F53C1
:104FB000436F6E6669675F4572726F723A25732C34
:104FC00025640D0A000000002DE9FF4704460D4648
:104FD00016461F46DDF830804FF000092CB94FF41B
:104FE000D37217A11CA0FBF767F92348006810B320
:104FF000009501960294062D15DAFFF767FD022849
:1050000008D10023424669461B480068FFF75CFB55
:10501000814610E000231A46694617480068FFF7EA
:1050200053FB814607E000233A4669461248006870
:10503000FFF734FC8146484604B0BDE8F087000025
:105040002E2E5C4672656552544F535C74696D65D3
:1050500072732E63000000004672656552544F5310
:10506000436F6E6669675F4572726F723A25732C83
:1050700025640D0A00000000B014002008B545E0CA
:1050800023A0FBF719F926480078072834D2DFE877
:1050900000F0040D161720292A0022480823802238
:1050A000002100900846FCF75DF925E01E48082322
:1050B0008022002100900846FCF754F91CE000BF54
:1050C0001A4808238022002100900846FCF74AF97C
:1050D00012E0174808238022002100900846FCF7C0
:1050E00041F909E000BF1348082380220021009005
:1050F0000846FCF737F900BF00BFFEF7D3FCFEF708
:105100009FFAFEF71BFD0520FEF760FEB8E70000E2
:105110000909090909202B2B2B2B200D0A0000005F
:105120000C00002034000020341000203404002043
:10513000340C00203408002010B591EA030F48BF5A
:1051400083F0004300F14483841A71EB030C05D211
:10515000121943EB0C03001B61EB0C01DFF824E197
:105160004FEA1154A4EB135C1EEA430F18BF9EEAEA
:10517000445F73D023EA0E03DCF1200E21EA0451D0
:1051800043F4801332D322FA0CFE10EB0E0023FA04
:105190000CFE41EB0E01CCF1200E03FA0EFE10EBDB
:1051A0000E0051F10001B1F5801FCCF1200E32D27A
:1051B00001EB045112FA0EF2BDE8104058BF7047DF
:1051C000401C38BF5FEA420218BF7047002814BF76
:1051D00020F0010041F100014FEA410313F5001FE7
:1051E00038BF7047A1F1C04100F0E4BA012A43EB97
:1051F0000302ACF1200CDCF11F0E32BF4FF0000EA9
:1052000023FA0CF310EB030041EB0451B4EB115FF4
:10521000D0D0A1EB045101F5801149085FEA3000BC
:1052200001EB04510ED350F1000038BF12FA0EFE0C
:1052300008D1BDE81040C9E7401C38BF5FEA420210
:10524000CAD1C3E7BDE810404FEA410313F5001F80
:1052500038BF7047A1F1C04100F0ACBA9EEA445F8C
:1052600008D011EA5E0FBDE8104004BF01F0004114
:1052700000207047BDE8104070B500F04DFA00BF47
:1052800064FBBE3E0000E0FF2DE9C04130B4DFF812
:10529000A0C23CEA111418BF3CEA131400F0EC80E1
:1052A00081EA03051CEA111444EAD57418BF1CEA0C
:1052B000131500F0C780A4EB05044FF0004545EA44
:1052C000C12145EAC32341EA505143EA525304F154
:1052D0007F74994204F500344FEAC0204FEAC2229D
:1052E00008BF904200F09C804FEA13650FF2401611
:1052F000765D4FEA134506FB05F7C7F1807706FB9D
:1053000007F74FEAD737A7FB03687642C8F580381E
:10531000A7FB06CE38BFA8F1010807FB08E64FF04F
:10532000000EA6FB028CE6FB03CEDCF1000CCEF1F6
:10533000004E38BFAEF1010EA6FB0C584FF000072F
:105340004FF00005E6FB0E87A1FB08C6A0FB07CEC9
:1053500016EB0E0645F10005E1FB076515F1E04E81
:105360007EBFA4F580345FEA46066D4116F18007E2
:1053700045F100054FEA17274FEA066647EA056739
:10538000A6F1DE46B6F1805F4FEA15251FD93846F3
:1053900024F0010C05EBC471BCF1FE6F01EB0C11A4
:1053A00002D8F0BCBDE8008124425CBF01F5801E3C
:1053B0009EEAC47F02D4F0BCBDE80081244238D408
:1053C000F0BCA1F1C041BDE8004100F0F3B94FEAE3
:1053D000D22242EA43524FEAD323A7FB02864FEA86
:1053E000D02040EA415007FB03661EEA0E0F4FEA49
:1053F000D12105FB026658BFA6EB0056B6EB00565E
:105400004FEA520E4EEAC37E18EB0E0E56EB530EC9
:10541000BDD518EB02085E417F1C55F10005B6E7CB
:105420004FF480154FF000074FF000064FF00008D2
:10543000ADE7F0BC4FF0000001F1C04101F00041C8
:10544000BDE8008111EA0C1F0CEA131500D00CE036
:1054500013EA0C1F00F025804FF00000F0BC81EA39
:10546000030101F00041BDE80081F0BCBDE800414E
:1054700081EA030100F09EB9F0BCBDE8004170B5BF
:1054800000F04AF9097EFC3E00F007B881EA03010A
:105490004FF0000001F00041704781EA030100F085
:1054A00089B9F0BCBDE800414FF0000021497047C8
:1054B000FFFDFBF9F7F5F4F2F0EEEDEBE9E8E6E4D9
:1054C000E3E1E0DEDDDBDAD8D7D5D4D3D1D0CFCD60
:1054D000CCCBCAC8C7C6C5C4C2C1C0BFBEBDBCBB99
:1054E000BAB9B8B7B6B5B4B3B2B1B0AFAEADACAB94
:1054F000AAA9A8A8A7A6A5A4A3A3A2A1A09F9F9E6E
:105500009D9C9C9B9A99999897979695959493931F
:10551000929191908F8F8E8E8D8C8C8B8B8A8989B6
:105520008888878786858584848383828281818039
:105530000000FF070000F87F4FEA41034FEA535392
:10554000A3F58063D3F11E03C8BFD3F1210C0CDD9A
:105550004FF0004242EAC12242EA505232FA03FCC2
:105560008CEAE17CACEBE1707047102BC4BF0020EB
:10557000704703F5787CBCF1FF3F04D06FF0004228
:1055800082EA2100704770B500F0C6F84992248085
:1055900000207047F2E710F0004248BF4042B0FAE6
:1055A00080F310FA03F10AD0C3F11D0303F5806301
:1055B0004FEA415002EB035202EBD12170474FF00A
:1055C00000007047DFF848C170B51CEA111E1EBF0D
:1055D0001CEA13159EEA0C0F95EA0C0F00F06F8081
:1055E00081EA030423EA4C134EEAD47E21EA4C11EB
:1055F00041F4801143F48013AE44A1FB024CA0FBA4
:105600000365AEF17F7E361955EB0C05A1FB034C0B
:105610004CF10003A0FB021C16EB0C06654153F194
:105620000003094218BF46F0010613F4007F0BD1B6
:105630004FEA03314FEA0530340341EA155140EA9D
:1056400016506FF003020AE04FEAC3214FEAC5206B
:10565000F40241EA555140EA56506FF0020202EB63
:105660002E4201EB025585EACE710AD05FEA440C66
:1056700018BF24F0004450F1000041F1000120EA7D
:10568000D47040F2FE7C624500D270BDA84214BFC7
:105690004FF080444FF04044002E08BF0024BEF17C
:1056A000806FA8BFA1F1C041BDE8704080F2828048
:1056B0004FF0000001F1C04101F0004170479EEA47
:1056C0000C0F0CEA131518BF95EA0C0F06D04FF01B
:1056D000000081EA030E0EF0004170BD00F01CF8DE
:1056E0008900013E00F007B800F009B84FEA430C0A
:1056F0005FEA5C5C08D081EA030100F05BB84FEA26
:10570000410C5FEA5C5CF6D14FF000000149704744
:105710000000FF070000F87F0EF1020E2EF0030ECE
:105720005EF8046B364205D4012A43EB030515F5F8
:10573000001F12D8012841EB010C1CF5001F0CD8EA
:105740000ED14FEAD17C15F5001F0CEB4C0C0CF17F
:10575000020C08BF4CEBD37C04E04FF0080C01E0D6
:105760004FEAD37C0CEB4C0526FA05F606F007064B
:10577000B6F1040C06D20EEB860CBDE870404CF07E
:10578000010C6047DFE80CF0090B02024FF000410A
:105790004FF00000A1F5002170BD19461046012808
:1057A00051EB010418BFD4F5001484BF002001F0B0
:1057B000004170BD0808A0F500114FEA31017047A3
:1057C00010B591EA030F48BF83F000433FF5BCAC2E
:1057D000841A71EB030C07D212198CF0004C43EBC6
:1057E0000C03001B61EB0C01DFF8A4E14FEA11543C
:1057F000A4EB135C1EEA430F18BF9EEA445F00F05F
:10580000B08023EA6E03524221EA0451C3EB6E03D7
:1058100038BF5B1EDCF1200E25D322FA0CFE10EB04
:105820000E0043FA0CFE41EB0E01CCF1200E03FA00
:105830000EFE10EB0E0051F10001CCF1200E29D428
:1058400012FA0EF201EB0451BDE8104058BF704748
:10585000401C1CBFB2F1004F704700280CBF491C10
:1058600020F00100704712EB020E43EB030218BF59
:105870004FF0010E4EEA4202ACF1200CDCF11E0E9C
:1058800054D943FA0CFE10EB0E0051F1FF31CCF16C
:105890001E0ED5D50EF1010E12FA0EFE404141EB5F
:1058A000010101EB445C5FEA5C5C10D910EBDE7037
:1058B00001EB045138BFBEF1004FBDE8104018BFE6
:1058C000704700280CBF491C20F00100704730D2FF
:1058D0004FEAD42C11F5001124F400641BD0B1FA66
:1058E00081F20B3AA41AA41ED2F12003914030FA9F
:1058F00003F31943904001EBCC71002C01EB0451F0
:10590000BDE81040A8BF704701F1C0414FF0000052
:1059100001F000417047B0FA80F310FA03F100D1B2
:1059200010BDE41A173C4805C90AE4E701EB04512D
:1059300010BD491001EB0451BDE810404FEA3000A2
:1059400002E04FF0000170474A0008BF0042F8D063
:10595000B2F5001F28BF704701F000414FF0000072
:1059600070479EEA445F07D011EA5E0FBDE8104021
:1059700004BF002100207047BDE8104070B5FFF75C
:10598000CBFE00BF40DFF63E83F00041104670477B
:105990000000E0FF43004FEAD30C4FEA3C0C4340C9
:1059A0001FBF40070CF1605113F0FE4F70471CF011
:1059B000006F03D100200CF0004170470CF0004351
:1059C00043EA507010B540EACC0000F027F800BF61
:1059D000000000924FEA0001FFF7ECBE4FF00041DB
:1059E0004FF00000A1F500217047000010F00041C9
:1059F00048BF4042B0FA80F310FA03F2C3F19D03AE
:105A00000BD051EAC35101EB1220530638BF704747
:105A100000F1010008BF20F0010070470EF1020EF6
:105A20002EF0030E5EF8044B244204D44FEA4102E8
:105A3000B2F17F4F11D84FEA4003B3F17F4F0CD83A
:105A40000ED14FEAD07CB2F17F4F0CEB4C0C0CF135
:105A5000020C08BF4CEBD17C04E04FF0080C01E0D5
:105A60004FEAD17C0CEB4C0324FA03F404F0070456
:105A7000B4F1040C06D20EEB840CBDE810404CF0DF
:105A8000010C6047DFE80CF0070802024FF000400D
:105A9000A0F5800010BD0846420018BFD2F1807208
:105AA00088BF00F0004010BDC85A00080000002068
:105AB000E014000028010008B85C0008E014002091
:105AC0007833000084010008011184A24A041009FF
:105AD000010203040607080922020527B004400654
