:020000040800F2
:100000000004002047010008CD010008CF010008CE
:10001000D3010008D7010008DB0100080000000040
:10002000000000000000000000000000DF010008E8
:10003000E101000800000000E3010008E5010008FC
:1000400067010008670100086701000867010008F0
:1000500067010008670100086701000867010008E0
:1000600067010008670100086701000867010008D0
:1000700067010008670100086701000867010008C0
:1000800067010008670100086701000867010008B0
:1000900067010008670100086701000867010008A0
:1000A0006701000867010008670100086701000890
:1000B00007020008670100086701000867010008DF
:1000C0006701000867010008670100086701000870
:1000D00067010008E70100086701000867010008E0
:1000E0006701000867010008670100086701000850
:1000F0006701000867010008670100086701000840
:10010000670100086701000867010008670100082F
:10011000670100086701000867010008670100081F
:10012000670100086701000867010008670100080F
:10013000DFF80CD001F006FE00480047750100080A
:1001400020020020704708488047084981F308884A
:1001500007480047FEE7FEE7FEE7FEE7FEE7FEE7AB
:10016000FEE7FEE7FEE7FEE745010008200200206B
:100170003101000801F0A6FD00F054F800F0AAF8E3
:1001800000F006F900F019F900F038F908A001F0C4
:10019000EBFD0BE00C480088642801DA00F05CF904
:1001A0004FF4FA7000F0DBF800F0ADF8F2E7000071
:1001B000202D2D2D2D2D2D2DB3ACC9F9B2A82D2D0F
:1001C0002D2D2D2D0D0A000000000020704700BFCE
:1001D000FEE700BFFEE700BFFEE700BFFEE7704797
:1001E00070477047704710B540F225510B4800F03A
:1001F0006FFE38B10948001D0088C4B2214608A02E
:1002000001F0B2FD10BD10B50121880701F0D3FC4B
:1002100018B10121880701F0DFFC10BD0038014052
:100220002563000000B585B0012144F2040000F010
:1002300069FC4FF40070ADF8100018208DF8130021
:1002400003208DF8120004A9204800F0BFF94FF4F4
:100250008060ADF8100004208DF8130004A91B483D
:1002600000F0B4F94FF4E13000900020ADF8040044
:10027000ADF80600ADF80800ADF80C000C20ADF8A4
:100280000A006946124800F0EAFC0121104800F01B
:1002900054FD05B000BD70B504460D46E1B20C48F2
:1002A00000F0B3FD00BF0A48008800F0800000287D
:1002B000F9D0204670BD06E0002101E04A1CD1B211
:1002C0004829FBDB401E0028F6DC7047000801408F
:1002D0000038014008B50121082000F013FC4FF45C
:1002E0008050ADF8000010208DF8030003208DF839
:1002F00002006946254800F069F94FF4805123480F
:1003000000F011FA08BD10B54FF480511F4800F0FD
:10031000FDF9C0F10100C4B222464FF480511B48E0
:1003200000F005FA10BD10B500224FF480511748B7
:1003300000F0FDF910BD10B501221103134800F0C3
:10034000F6F910BD002107E0002101E04A1CD1B2FE
:100350000229FBDB421E90B20028F5DC704700B595
:10036000034603E04FF47A70FFF7ECFF181EA3F189
:1003700001018BB2F6D100BD10B5FFF7D4FF0A2002
:10038000FFF7EDFFFFF7D7FF10BD0000000C0140A5
:1003900008B54FF4E06000F0D1FD1C208DF800009E
:1003A00000208DF8010003208DF8020001208DF857
:1003B0000300684600F0C7FD08BD0EB501210846E0
:1003C00000F0ADFB4FF0804000F026FE4FF6FF70CE
:1003D000ADF8040040F26710ADF800000020ADF861
:1003E0000600ADF8020069464FF0804000F07FFE45
:1003F0000121880701F0DCFB0EBD000008B50121DA
:10040000042000F07FFB0220ADF8000010208DF8E2
:10041000030003208DF802006946314800F0D6F849
:100420000120ADF8000004208DF8030069462C4837
:1004300000F0CCF808BD10B54FF0804001F0A9FBEA
:1004400000EB800000EB001040004FF4FA6190FBDD
:10045000F1F02449088010BD70B50221204800F059
:1004600062F91420FFF727FF02211D4800F05DF913
:1004700000BF01211A4800F03CF90028F9D0012101
:10048000880701F0BAF800BF0121154800F031F9E2
:100490000028F9D100214FF0804001F0AEF8FFF7BD
:1004A000CAFF00214FF0804001F052FB0D48008848
:1004B000B0F5E17F10DA0B4805880488E01704EBFB
:1004C00010600012A4EB0022E81705EB1060011287
:1004D00005A001F049FC02E006A001F045FC70BD5A
:1004E00000080140000000202564256420636D0D94
:1004F0000A000000303030200D0A000010B504461C
:10050000C649601A8C422FD009DCC548204480B10E
:10051000B0F5806F16D0B0F5006F4AD11BE0B0F592
:10052000806F2AD0B0F5006F30D0B0F5406F40D169
:1005300035E00121042000F0FFFA0021042000F042
:10054000FBFA37E00121082000F0F6FA002108202C
:1005500000F0F2FA2EE00121102000F0EDFA002167
:10056000102000F0E9FA25E00121202000F0E4FA53
:100570000021202000F0E0FA1CE00121402000F0E2
:10058000DBFA0021402000F0D7FA13E0012180209F
:1005900000F0D2FA0021802000F0CEFA0AE001211A
:1005A000080200F0C9FA00214FF4807000F0C4FA8C
:1005B00000E000BF00BF10BD10B50121084600F0EB
:1005C000BBFA0021012000F0B7FA10BD2DE9F0417F
:1005D000024600250026002000230024002791F871
:1005E00003C00CF00F0591F803C00CF0100CBCF127
:1005F000000F03D091F802C04CEA050591F800C045
:10060000BCF1000F31D0146800202BE04FF0010C3A
:100610000CFA00F3B1F800C00CEA03069E4220D1A8
:1006200083004FF00F0C0CFA03F7BC4305FA03FCF0
:100630004CEA040491F803C0BCF1280F06D14FF036
:10064000010C0CFA00FCC2F814C00AE091F803C0D7
:10065000BCF1480F05D14FF0010C0CFA00FCC2F8B8
:1006600010C0401C0828D1D31460B1F800C0BCF100
:10067000FF0F34DD546800202EE000F1080C4FF02D
:10068000010808FA0CF3B1F800C00CEA03069E4218
:1006900021D183004FF00F0C0CFA03F7BC4305FA8D
:1006A00003FC4CEA040491F803C0BCF1280F05D107
:1006B00000F1080C08FA0CF8C2F8148091F803C095
:1006C000BCF1480F07D100F1080C4FF0010808FAFF
:1006D0000CF8C2F81080401C0828CED35460BDE846
:1006E000F0814FF6FF710180022181700421C170F9
:1006F00070470246002093680B400BB1012000E0D8
:10070000002070470146886880B27047024600208A
:10071000D3680B400BB1012000E000207047014678
:10072000C86880B2704701617047416170470AB183
:10073000016100E041617047C16070474FF4803251
:100740000A438261816182618269826970470246DF
:100750000020344B18684FF68073184040EA0210AE
:100760000843304B186070472F49C8617047F0B597
:100770000A4600230024002100252A4E7168C0F398
:10078000034583B200F44016B6F5401F08D121F0AE
:100790007061244E766826F07066224F7E6012E00B
:1007A00000F48016B6F5801F06D1032606FA05F47C
:1007B000A14341F0706106E0460D360103FA06F6EA
:1007C000B14341F0706122B1460D360103FA06F6DD
:1007D0003143144E7160F0BD30B500228B071C0F01
:1007E0000F2303FA04F20F4B08338C1053F8243014
:1007F00093430C4C08348D1044F8253023468C105C
:1008000053F824308C07240F00FA04F42343054CDA
:1008100008348D1044F8253030BD0000001401402C
:1008200000F8FEBF0000014000002042DE480068E2
:1008300040F00100DC49086008464068DB49084098
:10084000D949486008460068D9490840D649086037
:100850000846006820F4802008600846406820F4BC
:10086000FE004860002088607047CF49096821F485
:100870008031CD4A11601146096821F48021116050
:10088000B0F5803F03D0B0F5802F0ED106E0C64909
:10089000096841F48031C44A116007E0C24909681F
:1008A00041F4A021C04A116000E000BF00BF7047C2
:1008B00010B501460022002300204A11012A02D16E
:1008C000B94C236806E0022A02D1B74C236A01E042
:1008D000B54C636A01F01F02012494401C400CB126
:1008E000012000E0002010BD38B500200090002459
:1008F000002500BF3120FFF7DBFF05460098401CB4
:1009000000901DB90098B0F5A06FF3D13120FFF72A
:10091000CFFF08B1012400E00024204638BD014685
:100920000020A14A106820F0F80040EAC1001060E1
:100930007047A04908607047024600209A4B5868EB
:1009400020F47C1042EA01031843974B586070472B
:1009500098490866704701460020934A506820F085
:1009600003000843506070478F48406800F00C0057
:100970007047014600208C4A506820F0F000084380
:100980005060704701460020874A506820F4E060BC
:1009900008435060704701460020834A506820F4A5
:1009A000605040EAC1005060704729B17E4A527AD7
:1009B00002437D4B5A7204E07B4A527A82437A4B5F
:1009C0005A7270477B49D831086070470146002051
:1009D000754A506820F44040084350607047002139
:1009E000714A20321170704A82F82010012802D01A
:1009F00004280AD104E001216B4A2032117005E07D
:100A00000521694A2032117000E000BF00BF704725
:100A10006949086070476449096A0143624A116282
:100A20007047654944390860704730B5002100229D
:100A3000002400235C4D6D6805F00C0121B10429F0
:100A400005D0082923D105E05C4D056022E05B4D0F
:100A500005601FE0544D6D6805F47012022505EB2A
:100A60009242514D6D6805F480341CB9544D554384
:100A700005600BE04C4D6D6805F400351DB1504D1F
:100A80005543056002E04D4D5543056002E04B4D76
:100A9000056000BF00BF444D6D6805F0F001090915
:100AA000484D6B5C0568DD4045603F4D6D6805F461
:100AB000E061090A434D6B5C4568DD4085603A4D55
:100AC0006D6805F46051C90A3E4D6B5C4568DD40B8
:100AD000C560354D6D6805F44041890B3A4D6B5C3E
:100AE000C568B5FBF3F5056130BD29B12E4A5269E1
:100AF00002432D4B5A6104E02B4A526982432A4B30
:100B00005A61704729B1284A92690243264B9A617B
:100B100004E0254A92698243234B9A61704729B1C8
:100B2000214AD2690243204BDA6104E01E4AD269AD
:100B300082431D4BDA61704729B11B4AD2680243D8
:100B4000194BDA6004E0184AD2688243164BDA6027
:100B5000704729B1144A12690243134B1A6104E029
:100B6000114A12698243104B1A6170471249403989
:100B7000086070470F49C86470470B49C8717047D7
:100B80000948406A40F08070074948627047014652
:100B90000020054A92680A400AB1012000E00020C6
:100BA0007047014988727047001002400000FFF84A
:100BB000FFFFF6FE000042428004424200127A002B
:100BC00000093D00020000201200002010B504467C
:100BD000D749601A8C422BD006DCD648204498B105
:100BE000B0F5806F38D119E0B0F5806F2AD0B0F53C
:100BF0006C4F31D101218803FFF79EFF00214FF494
:100C00008040FFF799FF28E001214804FFF7A1FF8A
:100C100000214FF40030FFF79CFF1EE00121880403
:100C2000FFF797FF00214FF48020FFF792FF14E0B9
:100C30000121C804FFF78DFF00214FF40020FFF7CA
:100C400088FF0AE001210805FFF783FF00214FF428
:100C50008010FFF77EFF00E000BF00BF10BD2DE950
:100C6000F04786B005460E460024A24600BF00BFEE
:100C700000272F462C8A4CF6FF700440F08804436E
:100C80002C82AC894EF6F3100440B08831890843B9
:100C9000718908430443AC81AC8A4FF6FF4004409D
:100CA000B0890443AC8201A8FFF7BFFEA248874287
:100CB00002D1DDF810A001E0DDF80CA00AEBCA00BB
:100CC00000EB0A1031688900B0FBF1F86420B8FB32
:100CD000F0F004012009642101FB1089322000EBAF
:100CE0000910B0FBF1F000F00F0004432C8106B0B6
:100CF000BDE8F0874FF41651016000218180C1806A
:100D000001810C21418100218181704710B502468B
:100D10000020108A4FF2FF0318400B884C882343B1
:100D20008C882343CC8823431843108210BD0021B4
:100D3000018041808180C180704721B1828942F465
:100D40000052828104E082894DF6FF731A4082814D
:100D50007047F0B503460024002600250020184601
:100D6000C1F3421401F01F06012707FA06F5012C12
:100D700001D10C3004E0022C01D1103000E014301D
:100D80001AB107682F43076002E00768AF430760A6
:100D9000F0BD1AB1838A0B43838202E0838A8B43BE
:100DA00083827047028A4FF6F0731A400282028AE9
:100DB0000A430282704782894FF2FF731A40828190
:100DC00082890A438281704721B1828942F00202FE
:100DD000828104E082894FF6FD731A408281704758
:100DE000028A4FF6DF731A400282028A0A430282A5
:100DF000704721B1028A42F48042028204E0028AF2
:100E00004BF6FF731A4002827047C1F308028280DA
:100E1000704701468888C0F308007047818941F017
:100E2000010181817047028BD2B20283028B42EAB8
:100E3000012202837047028B02F47F420283028BFD
:100E40000A430283704721B1828A42F020028282E3
:100E500004E0828A4FF6DF731A408282704721B124
:100E6000828A42F01002828204E0828A4FF6EF7397
:100E70001A408282704721B1828A42F0080282823F
:100E800004E0828A4FF6F7731A4082827047828AA2
:100E90004FF6FB731A408282828A0A43828270472D
:100EA00021B1828A42F00202828204E0828A4FF6F5
:100EB000FD731A40828270470246002013880B405F
:100EC0000BB1012000E000207047CA430280704748
:100ED00070B502460B460024002100250020C3F314
:100EE000421503F01F01012606FA01F1012D02D17E
:100EF0009689314006E0022D02D1168A314001E088
:100F0000968A31401C12012606FA04F416883440F1
:100F100011B10CB1012000E0002070BD10B500221D
:100F200000230A1201249440A3B2DC43048010BDC4
:100F3000004C004000BCFFBF003801403149014374
:100F4000314A1160704770B5002100230F22C47828
:100F500004B32D4C246804F4E064C4F5E064210A71
:100F6000C1F10403CA40447804FA03F184781440C0
:100F700021430901254C0678A155047804F01F058A
:100F80000124AC4005786D11AD0005F1E025C5F8F0
:100F9000004109E0047804F01F050124AC401C4D19
:100FA0000678761145F8264070BD1A4A0A40024379
:100FB000154B1B1F1A60704739B1134A121D126876
:100FC0000243114B1B1D1A6006E00F4A121D1268E6
:100FD00082430D4B1B1D1A607047042808D14FF047
:100FE000E021096941F004014FF0E022116107E0BE
:100FF0004FF0E021096921F004014FF0E022116176
:10100000704700000000FA050CED00E000E400E08D
:1010100080E100E080FFFF1F10B50446F749601A29
:101020008C4245D00CDCB4F1804F1DD0F4482044F4
:1010300018B3B0F5806F29D0B0F5006F54D12EE011
:10104000B0F5806F3DD0B0F58E3F03D0B0F5923F44
:101050004AD13FE00121C802FFF76EFD00214FF4A5
:101060000060FFF769FD40E001210846FFF771FDD0
:1010700000210120FFF76DFD37E001210220FFF77D
:1010800068FD00210220FFF764FD2EE0012104200D
:10109000FFF75FFD00210420FFF75BFD25E0012144
:1010A0000820FFF756FD00210820FFF752FD1CE045
:1010B00001211020FFF74DFD00211020FFF749FD11
:1010C00013E001212020FFF744FD00212020FFF73D
:1010D00040FD0AE001214803FFF72EFD00214FF4F7
:1010E0000050FFF729FD00E000BF00BF10BD0288DF
:1010F00002F08F020280CA884B881A4303881A4381
:1011000002808A8882850A880285BE4A904202D07F
:10111000BD4A904201D10A7A02860122828270473A
:1011200070B5002400220023058C4FF6FE76354072
:101130000584028C8388048B4FF68F752C400D88B4
:101140002C43751E2A400D892A434D882A43CD8899
:101150008586AC4DA84202D0AB4DA84213D14FF6C4
:10116000F7752A404D892A434FF6FB752A408D8832
:101170002A4347F6FF652B4047F6FF552B408D89E4
:101180002B43CD892B4383800483028470BD70B5CB
:10119000002400220023058C4FF6EF7635400584AD
:1011A000028C8388048B48F6FF752C400D884FF61F
:1011B000FF7606EA05252C434FF6DF752A400D8998
:1011C00006EA05152A434D8806EA05152A43CD8807
:1011D00005878C4DA84202D08B4DA8421DD14FF6F9
:1011E0007F752A404D894FF6FF7606EA05152A439A
:1011F0004FF6BF752A408D8806EA05152A4347F643
:10120000FF352B4047F2FF752B408D8906EA850597
:101210002B43CD8906EA85052B4383800483028412
:1012200070BD70B5002400220023058C4FF6FF66C8
:1012300035400584028C8388848B4FF68F752C4053
:101240000D882C434FF6FF552A400D894FF6FF7647
:1012500006EA05252A434D8806EA05252A43CD8856
:101260008587684DA84202D0674DA8421DD14FF234
:10127000FF752A404D894FF6FF7606EA05252A4379
:101280004FF6FF352A408D8806EA05252A4346F6A3
:10129000FF752B4045F6FF752B408D8906EA051535
:1012A0002B43CD8906EA05152B4383808483028472
:1012B00070BD70B5002400220023058C4EF6FF7629
:1012C00035400584028C8388848B48F6FF752C405A
:1012D0000D884FF6FF7606EA05252C434DF6FF757F
:1012E0002A400D8906EA05352A434D8806EA053568
:1012F0002A43CD88A0F84050424DA84202D0424D2A
:10130000A84207D1C3F30D038D894FF6FF7606EA95
:1013100085152B4383808483028470BD828B4FF2BA
:10132000FF331A408283828B4FF6FF7303EA012357
:101330001A4382837047F0B50C46154600210022FF
:101340000026078C4EF6FF7C07EA0C070784818B8A
:10135000028C4FF6FF7707EA043640F6FF47394024
:101360004FF6FF7707EA05274FF6FF7C0CEA033CB0
:1013700047EA0C0739434DF6FF773A4046F4805769
:101380003A4381830284F0BD828B4FF6F3731A4097
:101390008283828B0A4382837047F0B50C461546E0
:1013A000002100220026078C4FF6FF6C07EA0C078D
:1013B0000784818B028C4FF6FF7707EA04264FF6ED
:1013C0000C7739404FF6FF7707EA03172F4339436D
:1013D0004FF6FF573A4046F480773A4381830284C0
:1013E000F0BD028B4FF2FF331A400283028B4FF69F
:1013F000FF7303EA01231A43028370470010004081
:1014000000FCFFBF002C014000340140F0B50C4649
:101410001546002100220026078C4FF6EF7C07EAD4
:101420000C070784018B028C4FF6FF7707EA04163E
:1014300040F6FF4739404FF6FF7707EA0337394355
:101440004FF6FF7707EA052739434FF6DF773A4033
:1014500046F010073A4301830284F0BD028B4FF639
:10146000F3731A400283028B0A4302837047F0B57C
:101470000C46154600210022068C4FF6FE773E40B2
:101480000684018B028C4FF60C7631407E1C06EAF6
:1014900003162E4331437E1E324044F00106324390
:1014A00001830284F0BD70B505460C46208850B912
:1014B0002389A28861882846FFF7D9FFE18828465A
:1014C000FFF7CCFF25E0208804280AD12389A288D1
:1014D00061882846FFF79AFFE1882846FFF781FFD9
:1014E00017E0208808280AD12389A2886188284625
:1014F000FFF753FFE1882846FFF746FF09E02389FD
:10150000A28861882846FFF716FFE1882846FFF782
:1015100005FF70BD2DE9F04105460C460026012768
:10152000608808B9022600E00026A088012801D1C1
:10153000022700E001272088A0B92389A2886188BA
:101540002846FFF794FFE1882846FFF787FF2389A5
:101550003A4631462846FFF759FFE1882846FFF70B
:1015600040FF13E02389A28861882846FFF74EFFD9
:10157000E1882846FFF735FF23893A463146284659
:10158000FFF775FFE1882846FFF768FFBDE8F081A7
:101590000A884B881A438B881A43CB881A430B89D5
:1015A0001A434B891A438B891A43A0F84420704789
:1015B0004FF6FF71818000210180C180418001725E
:1015C00070470021018041808180C180018141817B
:1015D0008181C1817047002101804180012181808A
:1015E0000021C180018170470021018041808180FC
:1015F000C180018141818181704721B1028842F01F
:101600000102028004E0028840F2FE331A400280A8
:10161000704731B1B0F8442042F40042A0F84420B1
:1016200005E0B0F84420C2F30E02A0F84420704751
:101630001AB183890B43838102E083898B438381C1
:1016400070478182704741EA0203A0F84830704732
:101650001AB183890B43838102E083898B438381A1
:10166000704701894FF6F8721140018170470A46B0
:10167000002101894FF68F73194011430181704792
:1016800030B504460D4629462046FFF7F0FF208975
:1016900040F00700208130BD2DE9F04104460D46A1
:1016A00016461F46602D06D13B4601223146204694
:1016B000FFF7ACFE05E03B46012231462046FFF72E
:1016C000D6FE29462046FFF7D2FF208940F00700CA
:1016D0002081BDE8F08170B50C4600210189C9B2B6
:1016E00044EA02054FF6FF7606EA0326354329430E
:1016F000018170BD2DE9F04105460E46174698461A
:10170000002443463A4631462846FFF7E4FF2C8939
:101710004FF6F870044044F007044FF68F70044011
:1017200044F070042C81BDE8F081F0B504460D460C
:1017300016461F463B46324629462046FFF7CBFF5A
:10174000208940F480402081F0BD0185828270476D
:101750000A460021018840F28F331940114301806D
:101760007047F0B50C4615461E46002100220023A6
:101770000189028B038C4FF6F877394021434FF6ED
:10178000FC473A4040F201173A434FF6DD773B40C1
:101790004FF6FF7707EA06172F433B430181028389
:1017A0000384F0BD0A460021018B4FF68F73194068
:1017B0001143018370470A460021018B48F6FF73ED
:1017C00019404FF6FF7303EA022319430183704760
:1017D0000A460021818B4FF68F7319401143818394
:1017E00070470A460021818B48F6FF7319404FF677
:1017F000FF7303EA022319438183704721B10288F2
:1018000042F08002028004E0028840F27F331A40F6
:101810000280704721B1828842F00402828004E095
:1018200082884FF6FB731A408280704721B182880C
:1018300042F00802828004E082884FF6F7731A4073
:101840008280704721B1828842F00102828004E0E8
:1018500082884FF6FE731A40828070470A46002144
:10186000018B4FF6F77319401143018370470A4605
:101870000021018B4FF2FF7319404FF6FF7303EA0B
:1018800002231943018370470A460021818B4FF6DA
:10189000F77319401143818370470A460021818BF9
:1018A0004FF2FF7319404FF6FF7303EA0223194307
:1018B000818370470A460021018B4FF6FB73194064
:1018C0001143018370470A460021018B4FF6FF3315
:1018D00019404FF6FF7303EA02231943018370474F
:1018E0000A460021818B4FF6FB7319401143818317
:1018F00070470A460021818B4FF6FF3319404FF69F
:10190000FF7303EA02231943818370470A460021CB
:10191000018B4FF67F7319401143018370470A46CC
:101920000021018BC1F30E014FF6FF7303EA02237E
:101930001943018370470A460021818B4FF67F735C
:1019400019401143818370470A460021818BC1F3FE
:101950000E014FF6FF7303EA022319438183704798
:101960000A460021018C4FF6FD7319401143018492
:1019700070470A460021018C4FF6F7731940114356
:10198000018470470A460021018C4FF6DF7319402D
:101990004FF6FF7303EA02131943018470470A46A6
:1019A0000021018C4FF67F7319404FF6FF7303EA55
:1019B00002131943018470470A460021018C4FF637
:1019C000FF5319404FF6FF7303EA022319430184C2
:1019D00070470A460021018C4FF2FF7319404FF601
:1019E000FF7303EA02231943018470470A4600216A
:1019F000018C4DF6FF7319404FF6FF7303EA023373
:101A000019430184704710B5038C01248C40A34313
:101A10000384038C02FA01F4A4B22343038410BDAF
:101A200010B5038C04248C40A3430384038C02FA76
:101A300001F4A4B22343038410BD30B5038C012408
:101A40008C40A343038409B1082918D100F118037D
:101A500003EB61031B684FF68F74234000F11804F9
:101A600004EB6104236000F1180303EB61031B68BE
:101A7000134300F1180404EB610423601FE00B1F03
:101A8000C3F34E0400F118031B5948F6FF742340BA
:101A90000C1FC4F34E0500F1180463510B1FC3F370
:101AA0004E0400F118031B594FF6FF7404EA022498
:101AB00023430C1FC4F34E0500F11804635130BDDD
:101AC00021B1028842F00202028004E0028840F262
:101AD000FD331A400280704721B1028842F00402AF
:101AE000028004E0028840F2FB331A400280704713
:101AF00021B1828842F08002828004E082884FF621
:101B00007F731A4082807047028840F2F7331A4090
:101B1000028002880A430280704782884FF68F73E2
:101B20001A40828082880A438280704702894FF679
:101B3000F8731A40028102890A43028170470289C0
:101B40004FF67F731A40028102890A43028170476F
:101B5000818470478185704781867047018770470F
:101B600081877047A0F8401070470288D2B2028087
:101B700002880A43028070470146888E70470146FA
:101B8000088F70470146888F70470146B1F84000C2
:101B900070470146888C70470146088D70470246A1
:101BA0000020138A0B400BB1012000E00020704799
:101BB000CA430282704730B5024600200023002449
:101BC000158A05EA0103958905EA010413B10CB1F0
:101BD000012000E0002030BDCA43028270470000AF
:101BE0000CB50020019000904748006840F4803018
:101BF0004549086000BF4448006800F40030009088
:101C00000198401C0190009818B90198B0F5A06F98
:101C1000F1D13D48006800F4003010B1012000907F
:101C200001E0002000900098012844D13748006866
:101C300040F01000354908600846006820F00300B5
:101C400008600846006840F0020008602E484068BE
:101C50002D4948600846406848600846406840F49E
:101C6000806048600846406820F47C104860084660
:101C7000406840F4E81048600846006840F0807012
:101C8000086000BF2048006800F000700028F9D00C
:101C90001D48406820F003001B4948600846406822
:101CA00040F00200486000BF1748406800F00C0098
:101CB0000828F9D101E000BFFEE70CBD10B5FFF721
:101CC0008FFF10BD10B51048006840F001000E49AC
:101CD0000860084640680E4908400B4948600846BD
:101CE00000680C490840084908600846006820F46C
:101CF000802008600846406820F4FE00486000200C
:101D00008860FFF7DBFF10BD00100240002002409A
:101D10000000FFF8FFFFF6FE30B50B46014600203D
:101D20002022012409E021FA02F59D4205D303FA9D
:101D300002F5491B04FA02F52844151EA2F101021E
:101D4000F1DC30BD064C074D06E0E06840F00103D1
:101D500094E8070098471034AC42F6D3FEF7ECF94C
:101D6000601F0008801F00080FB4054B10B503A9C1
:101D7000044A029800F018F810BC5DF814FB00004B
:101D8000970200081800002002E008C8121F08C1CE
:101D9000002AFAD170477047002001E001C1121FEC
:101DA000002AFBD1704700002DE9FF4F8BB09A4607
:101DB0000F460546002606E025280BD052460D9911
:101DC00090476D1C761C28780028F5D10FB030465E
:101DD000BDE8F08F0024A0460122604900E00443E2
:101DE00015F8013F203B02FA03F00842F7D12878AA
:101DF0002E2817D115F8010F44F004042A280ED01C
:101E00006FF02F022878A0F1300109290AD808EBD9
:101E1000880102EB410100EB01086D1CF2E757F865
:101E2000048B6D1C287869283ED006DC0028CDD0B4
:101E300063280BD0642804D136E0732810D07528AD
:101E40004BD052460D999047761C85E017F8040B4D
:101E50008DF8000000208DF80100E946012003E024
:101E600057F8049B4FF0FF3061074FF0000401D496
:101E70000AE0641C44450DDA8442FADB19F80410C8
:101E80000029F6D106E0641C8442FCDB19F804103A
:101E90000029F8D1264404E019F8010B52460D99A7
:101EA0009047641EF8D257E001CF4FF00A0B00288C
:101EB00002DA40422D2102E0210504D52B218DF8C4
:101EC0002410012103E0E10705D02021F7E70DF1FF
:101ED000200908910CE00021F9E701CF4FF00A0B2F
:101EE000F9E75946FFF718FF01F1300209F8012D13
:101EF0000028F6D1ADEB090000F1200B600701D4FA
:101F00004FF00108D84502DDA8EB0B0000E00020EF
:101F10008046002406E009A85246005D0D999047CE
:101F2000641C761C08988442F5DB04E0302052469D
:101F30000D999047761CB8F10001A8F10108F5DC75
:101F400005E019F8010B52460D999047761CBBF13C
:101F50000001ABF1010BF4DC6D1C34E70928010032
:101F6000801F0008000000201C000000881D0008E1
:101F70009C1F00081C00002004020000981D00089F
:101F80000000000000000102030401020304060730
:0C1F900008090204060800000000000020
:0400000508000147A7
:00000001FF
