:020000040800F2
:1000000090040020010100082102000823020008DA
:10001000270200082B0200082F0200080000000041
:100020000000000000000000000000003302000893
:1000300035020008000000003702000839020008FD
:100040001B0100081B0100081B010008A11B000880
:100050001B0100081B0100081B0100081B01000810
:100060001B0100081B0100081B0100081B01000800
:100070001B0100081B0100081B0100081B010008F0
:100080001B0100081B0100081B0100081B010008E0
:100090001B0100081B0100081B0100081B010008D0
:1000A0001B0100081B0100081B0100081B010008C0
:1000B0001B0100081B0100081B0100081B010008B0
:1000C0001B0100081B0100081B0100081B010008A0
:1000D0001B010008BD1200081B0100081B010008DD
:1000E0001B0100081B0100081B010008DFF80CD0F1
:1000F00001F0B0FF004800472501000890040020EF
:100100000648804706480047FEE7FEE7FEE7FEE7B1
:10011000FEE7FEE7FEE7FEE7FEE7FEE7F110000878
:10012000ED0000088EB000BF00BF00BF00F0E0FF90
:10013000482001F007F84FF4A06000F043FE01F002
:1001400077FA01F0F8F901F0C9FB002000900346AE
:1001500016220521019040F2E27001F07BFC0020A4
:1001600001210B460522CDE90010032140F2E47085
:1001700001F070FC0BA801F013FC50E008A801F09E
:100180000FFC9DF82C008DF808009DF82D008DF8CF
:1001900009009DF82E008DF80A00BDF83000ADF87A
:1001A0000C009DF832008DF80E009DF833008DF89C
:1001B0000F009DF834008DF810009DF820008DF898
:1001C00014009DF821008DF815009DF822008DF88F
:1001D0001600BDF82400ADF818009DF826008DF833
:1001E0001A009DF827008DF81B009DF828008DF857
:1001F0001C0006980090BDF81C00ADF8040002A891
:100200000FC801F0A3FC0621042001F043FA0323E8
:1002100000221146104601F077FC00F074FEADE7B5
:10022000704700BFFEE700BFFEE700BFFEE700BF6C
:10023000FEE77047704770477047000010B50446EE
:10024000C649601A8C422FD009DCC548204480B1D1
:10025000B0F5806F16D0B0F5006F4AD11BE0B0F555
:10026000806F2AD0B0F5006F30D0B0F5406F40D12C
:1002700035E00121042000F0FFFA0021042000F005
:10028000FBFA37E00121082000F0F6FA00210820EF
:1002900000F0F2FA2EE00121102000F0EDFA00212A
:1002A000102000F0E9FA25E00121202000F0E4FA16
:1002B0000021202000F0E0FA1CE00121402000F0A5
:1002C000DBFA0021402000F0D7FA13E00121802062
:1002D00000F0D2FA0021802000F0CEFA0AE00121DD
:1002E000080200F0C9FA00214FF4807000F0C4FA4F
:1002F00000E000BF00BF10BD10B50121084600F0AE
:10030000BBFA0021012000F0B7FA10BD2DE9F04141
:10031000024600250026002000230024002791F833
:1003200003C00CF00F0591F803C00CF0100CBCF1E9
:10033000000F03D091F802C04CEA050591F800C007
:10034000BCF1000F31D0146800202BE04FF0010CFD
:100350000CFA00F3B1F800C00CEA03069E4220D16B
:1003600083004FF00F0C0CFA03F7BC4305FA03FCB3
:100370004CEA040491F803C0BCF1280F06D14FF0F9
:10038000010C0CFA00FCC2F814C00AE091F803C09A
:10039000BCF1480F05D14FF0010C0CFA00FCC2F87B
:1003A00010C0401C0828D1D31460B1F800C0BCF1C3
:1003B000FF0F34DD546800202EE000F1080C4FF0F0
:1003C000010808FA0CF3B1F800C00CEA03069E42DB
:1003D00021D183004FF00F0C0CFA03F7BC4305FA50
:1003E00003FC4CEA040491F803C0BCF1280F05D1CA
:1003F00000F1080C08FA0CF8C2F8148091F803C058
:10040000BCF1480F07D100F1080C4FF0010808FAC1
:100410000CF8C2F81080401C0828CED35460BDE808
:10042000F0814FF6FF710180022181700421C170BB
:1004300070470246002093680B400BB1012000E09A
:10044000002070470146886880B27047024600204D
:10045000D3680B400BB1012000E00020704701463B
:10046000C86880B2704701617047416170470AB146
:10047000016100E041617047C16070474FF4803214
:100480000A438261816182618269826970470246A2
:100490000020344B18684FF68073184040EA021071
:1004A0000843304B186070472F49C8617047F0B55A
:1004B0000A4600230024002100252A4E7168C0F35B
:1004C000034583B200F44016B6F5401F08D121F071
:1004D0007061244E766826F07066224F7E6012E0CE
:1004E00000F48016B6F5801F06D1032606FA05F43F
:1004F000A14341F0706106E0460D360103FA06F6AD
:10050000B14341F0706122B1460D360103FA06F69F
:100510003143144E7160F0BD30B500228B071C0FC3
:100520000F2303FA04F20F4B08338C1053F82430D6
:1005300093430C4C08348D1044F8253023468C101E
:1005400053F824308C07240F00FA04F42343054C9D
:1005500008348D1044F8253030BD000000140140EF
:1005600000F8FEBF0000014000002042DE480068A5
:1005700040F00100DC49086008464068DB4908405B
:10058000D949486008460068D9490840D6490860FA
:100590000846006820F4802008600846406820F47F
:1005A000FE004860002088607047CF49096821F448
:1005B0008031CD4A11601146096821F48021116013
:1005C000B0F5803F03D0B0F5802F0ED106E0C649CC
:1005D000096841F48031C44A116007E0C2490968E2
:1005E00041F4A021C04A116000E000BF00BF704785
:1005F00010B501460022002300204A11012A02D131
:10060000B94C236806E0022A02D1B74C236A01E004
:10061000B54C636A01F01F02012494401C400CB1E8
:10062000012000E0002010BD38B50020009000241B
:10063000002500BF3120FFF7DBFF05460098401C76
:1006400000901DB90098B0F5A06FF3D13120FFF7ED
:10065000CFFF08B1012400E00024204638BD014648
:100660000020A14A106820F0F80040EAC1001060A4
:100670007047A04908607047024600209A4B5868AE
:1006800020F47C1042EA01031843974B58607047EE
:1006900098490866704701460020934A506820F048
:1006A00003000843506070478F48406800F00C001A
:1006B0007047014600208C4A506820F0F000084343
:1006C0005060704701460020874A506820F4E0607F
:1006D00008435060704701460020834A506820F468
:1006E000605040EAC1005060704729B17E4A527A9A
:1006F00002437D4B5A7204E07B4A527A82437A4B22
:100700005A7270477B49D831086070470146002013
:10071000754A506820F440400843506070470021FB
:10072000714A20321170704A82F82010012802D0DC
:1007300004280AD104E001216B4A2032117005E03F
:100740000521694A2032117000E000BF00BF7047E8
:100750006949086070476449096A0143624A116245
:100760007047654944390860704730B50021002260
:10077000002400235C4D6D6805F00C0121B10429B3
:1007800005D0082923D105E05C4D056022E05B4DD2
:1007900005601FE0544D6D6805F47012022505EBED
:1007A0009242514D6D6805F480341CB9544D554347
:1007B00005600BE04C4D6D6805F400351DB1504DE2
:1007C0005543056002E04D4D5543056002E04B4D39
:1007D000056000BF00BF444D6D6805F0F0010909D8
:1007E000484D6B5C0568DD4045603F4D6D6805F424
:1007F000E061090A434D6B5C4568DD4085603A4D18
:100800006D6805F46051C90A3E4D6B5C4568DD407A
:10081000C560354D6D6805F44041890B3A4D6B5C00
:10082000C568B5FBF3F5056130BD29B12E4A5269A3
:1008300002432D4B5A6104E02B4A526982432A4BF2
:100840005A61704729B1284A92690243264B9A613E
:1008500004E0254A92698243234B9A61704729B18B
:10086000214AD2690243204BDA6104E01E4AD26970
:1008700082431D4BDA61704729B11B4AD26802439B
:10088000194BDA6004E0184AD2688243164BDA60EA
:10089000704729B1144A12690243134B1A6104E0EC
:1008A000114A12698243104B1A617047124940394C
:1008B000086070470F49C86470470B49C87170479A
:1008C0000948406A40F08070074948627047014615
:1008D0000020054A92680A400AB1012000E0002089
:1008E0007047014988727047001002400000FFF80D
:1008F000FFFFF6FE000042428004424200127A00EE
:1009000000093D00000000201000002010B5044642
:10091000D749601A8C422BD006DCD648204498B1C7
:10092000B0F5806F38D119E0B0F5806F2AD0B0F5FE
:100930006C4F31D101218803FFF79EFF00214FF456
:100940008040FFF799FF28E001214804FFF7A1FF4D
:1009500000214FF40030FFF79CFF1EE001218804C6
:10096000FFF797FF00214FF48020FFF792FF14E07C
:100970000121C804FFF78DFF00214FF40020FFF78D
:1009800088FF0AE001210805FFF783FF00214FF4EB
:100990008010FFF77EFF00E000BF00BF10BD2DE913
:1009A000F04786B005460E460024A24600BF00BFB1
:1009B00000272F462C8A4CF6FF700440F088044331
:1009C0002C82AC894EF6F3100440B088318908437C
:1009D000718908430443AC81AC8A4FF6FF40044060
:1009E000B0890443AC8201A8FFF7BFFEA24887424A
:1009F00002D1DDF810A001E0DDF80CA00AEBCA007E
:100A000000EB0A1031688900B0FBF1F86420B8FBF4
:100A1000F0F004012009642101FB1089322000EB71
:100A20000910B0FBF1F000F00F0004432C8106B078
:100A3000BDE8F0874FF41651016000218180C1802C
:100A400001810C21418100218181704710B502464E
:100A50000020108A4FF2FF0318400B884C88234374
:100A60008C882343CC8823431843108210BD002177
:100A7000018041808180C180704721B1828942F428
:100A80000052828104E082894DF6FF731A40828110
:100A90007047F0B5034600240026002500201846C4
:100AA000C1F3421401F01F06012707FA06F5012CD5
:100AB00001D10C3004E0022C01D1103000E01430E0
:100AC0001AB107682F43076002E00768AF43076069
:100AD000F0BD1AB1838A0B43838202E0838A8B4381
:100AE00083827047028A4FF6F0731A400282028AAC
:100AF0000A430282704782894FF2FF731A40828153
:100B000082890A438281704721B1828942F00202C0
:100B1000828104E082894FF6FD731A40828170471A
:100B2000028A4FF6DF731A400282028A0A43028267
:100B3000704721B1028A42F48042028204E0028AB4
:100B40004BF6FF731A4002827047C1F3080282809D
:100B5000704701468888C0F308007047818941F0DA
:100B6000010181817047028BD2B20283028B42EA7B
:100B7000012202837047028B02F47F420283028BC0
:100B80000A430283704721B1828A42F020028282A6
:100B900004E0828A4FF6DF731A408282704721B1E7
:100BA000828A42F01002828204E0828A4FF6EF735A
:100BB0001A408282704721B1828A42F00802828202
:100BC00004E0828A4FF6F7731A4082827047828A65
:100BD0004FF6FB731A408282828A0A4382827047F0
:100BE00021B1828A42F00202828204E0828A4FF6B8
:100BF000FD731A40828270470246002013880B4022
:100C00000BB1012000E000207047CA43028070470A
:100C100070B502460B460024002100250020C3F3D6
:100C2000421503F01F01012606FA01F1012D02D140
:100C30009689314006E0022D02D1168A314001E04A
:100C4000968A31401C12012606FA04F416883440B4
:100C500011B10CB1012000E0002070BD10B50022E0
:100C600000230A1201249440A3B2DC43048010BD87
:100C7000004C004000BCFFBF0038014029B1504A81
:100C8000128802434E4B1A8004E04D4A1288824378
:100C90004B4B1A8070474A48001D008840F01000F6
:100CA0004749091D088070474548001D00884FF6D8
:100CB000EF7108404249091D0880704700214048F3
:100CC0001C300188001F008841EA0040704700B5D1
:100CD0000246FFF7E0FF100C394918310880091D62
:100CE0000A80FFF7E1FF00BD00B50246FFF7D3FF22
:100CF000C2F30340324908310880091D0A80FFF71A
:100D0000D3FF00BD00B50246FFF7C5FF100C2C490C
:100D100020310880091D0A80FFF7C6FF00BD0020B2
:100D20002749103109880907080B2549143109881A
:100D30000843704700BF2248001D008800F02000D3
:100D40000028F8D070471E48001D00884FF6F77144
:100D500008401B49091D088000BF1948001D008874
:100D600000F008000028F8D0704701460020144A1F
:100D7000121D12880A400AB1012000E000207047CD
:100D80000F49091D098881430D4A121D11807047C2
:100D9000014600200A4A121D12880A40D0B2084AB1
:100DA00012880A4012B108B1012000E0002070470B
:100DB0000349091D09888143014A121D11807047AA
:100DC0000028004031490143314A1160704770B535
:100DD000002100230F22C47804B32D4C246804F4AE
:100DE000E064C4F5E064210AC1F10403CA40447818
:100DF00004FA03F18478144021430901254C067854
:100E0000A155047804F01F050124AC4005786D114C
:100E1000AD0005F1E025C5F8004109E0047804F0D3
:100E20001F050124AC401C4D0678761145F826407C
:100E300070BD1A4A0A400243154B1B1F1A607047C7
:100E400039B1134A121D12680243114B1B1D1A605F
:100E500006E00F4A121D126882430D4B1B1D1A60DB
:100E60007047042808D14FF0E021096941F00401DE
:100E70004FF0E022116107E04FF0E021096921F015
:100E800004014FF0E0221161704700000000FA05F4
:100E90000CED00E000E400E080E100E080FFFF1FD7
:100EA00010B501210807FFF7F4FC00214FF0805036
:100EB000FFF7EFFC10BD274908627047254908611C
:100EC000704701460020244A106820F0E0000843E3
:100ED000106070471F49A0310860704710B5024686
:100EE00000201D4B186820F00300104318601B4BB6
:100EF0001B6843F00403194C2360012901D130BF62
:100F000000E020BF10BD1448006840F00400124902
:100F100008600846006840F0020008600F4800685A
:100F200040F004000D49086000BF00BF30BF7047AB
:100F300001460020084A52680A400AB1012000E038
:100F4000002070470449096841EA8001024A1160A3
:100F50007047000000000E420070004010ED00E0FD
:100F600010B50120FFF7A2FC0020FFF79FFC10BD89
:100F70002349086070472249091F086070472049CB
:100F8000843108607047014600201E4A10884FF6E1
:100F90007F42104008431B4A1080704701460020E2
:100FA000184A10884FF6807210400843154A108086
:100FB0007047154A0244A2F8001C704701461248C7
:100FC0000844B0F8000C70470D489C300068C0B26F
:100FD00070470C480830008840F00100094908318A
:100FE000088070470648A0300068C0B270470548C6
:100FF0000830008840F0020002490831088070473C
:1010000004860D422C6C0040006000400CB50020AE
:10101000019000904748006840F4803045490860DE
:1010200000BF4448006800F4003000900198401C64
:101030000190009818B90198B0F5A06FF1D13D4822
:10104000006800F4003010B10120009001E00020A1
:1010500000900098012844D13748006840F0100003
:10106000354908600846006820F00300086008461B
:10107000006840F0020008602E4840682D49486032
:101080000846406848600846406840F48060486010
:101090000846406820F47C1048600846406840F4E8
:1010A000E81048600846006840F08070086000BFA3
:1010B0002048006800F000700028F9D01D48406802
:1010C00020F003001B4948600846406840F00200D9
:1010D000486000BF1748406800F00C000828F9D1AC
:1010E00001E000BFFEE70CBD10B5FFF78FFF10BD9C
:1010F00010B51048006840F001000E49086008462D
:1011000040680E4908400B494860084600680C4991
:101110000840084908600846006820F480200860FC
:101120000846406820F4FE00486000208860FFF711
:10113000DBFF10BD00100240002002400000FFF85D
:10114000FFFFF6FE10B504466FF00400FFF789FEBE
:10115000E11704EB5171C1F3C701264A1170104623
:10116000007800EB4001C1EBC0104FF6FF7101EABF
:10117000C0002149088010BD01461F4A12884A4319
:101180004FF0E0235A6100229A611A46126942F038
:1011900001021A6100BF4FF0E022106900F0010265
:1011A0001AB100F48032002AF5D000224FF0E0237B
:1011B0001A619A61704701460E4A12784A434FF00D
:1011C000E0235A6100229A611A46126942F0010234
:1011D0001A6100BF4FF0E022106900F001021AB15D
:1011E00000F48032002AF5D000224FF0E0231A618B
:1011F0009A617047140000201600002000BF70475D
:1012000070B504460D46E1B26148FFF79EFC00BF91
:101210005F48008800F080000028F9D0204670BDAB
:1012200010B586B00446012144F20500FFF70AFB21
:101230005748FFF76BFB4FF40070ADF81400032024
:101240008DF8160018208DF8170005A95148FFF7F2
:101250005DF84FF48060ADF8140048208DF8170059
:1012600005A94C48FFF752F825208DF81000012001
:101270008DF811008DF812008DF8130004A8FFF707
:10128000A6FD00940020ADF80400ADF80600ADF80E
:101290000800ADF80C000C20ADF80A0069463C4887
:1012A000FFF77DFB012240F225513948FFF7F1FBA2
:1012B00001213748FFF7E1FB06B010BD10B540F241
:1012C00025513348FFF7A4FC10B33148FFF741FC28
:1012D000C4B23148008800F40040C8B92E480088E4
:1012E00000F4804060B10A2C03D000202A49088015
:1012F00020E02948008840F400402749088019E090
:101300000D2C06D12448008840F4804022490880F2
:1013100010E021480088C0F30D0020490C541E48FD
:101320000088401C1C49088008460088632801DDAD
:101330000020088010BD70B505460C4620212846C7
:10134000FFF75AFC08B9012070BD2846FFF701FCE1
:1013500020700020F8E770B504460D462946204667
:10136000FFF7F3FB00BF80212046FFF745FC002874
:10137000F9D070BD70B505460C4604E021782846CA
:10138000FFF7E9FF641C20780028F7D170BD00004A
:1013900000380140000801401C000020200000200F
:1013A00010B59D48006820F0F0009B490860084691
:1013B000006840F03000086000209849086040F262
:1013C000EE20FFF7F8FE01209549C1F8A4010F2097
:1013D000FFF7F1FE10BD10B500248F48006820F023
:1013E000F0008D4908600846006840F08000086001
:1013F00004E0601CC4B20120FFF7DDFE874880389E
:10140000006808B1C82CF4DBC82C01DB012010BD3A
:10141000002404E0601CC4B20120FFF7CCFE7F482A
:101420008038006808B9F02CF4DBF02C01DB0120D7
:10143000EDE70020EBE710B57748006820F0F000FA
:10144000754908600846006840F0300008600020D8
:10145000724908600220FFF7AEFE01207049C1F812
:10146000A4016D48006820F0F0006B490860084650
:10147000006840F0800008600C20FFF79CFE674881
:101480008038006808B1012400E000243220FFF712
:1014900092FE204610BD70B50026012508E0FFF73A
:1014A000CAFF0446E00140EA6600C6B2681CC5B245
:1014B000082DF4DD304670BD70B50446564800680E
:1014C00020F0F000544908600846006840F0300001
:1014D0000860012520E004F0010664106EB10020D0
:1014E0004E4908600220FFF766FE01204C49C1F812
:1014F000A4013C20FFF75FFE0CE000204749086094
:101500003C20FFF758FE01204549C1F8A401022004
:10151000FFF751FE681CC5B2082DDCDD70BD10B5AB
:10152000FFF73EFFFFF757FFCC20FFF7C5FF442032
:10153000FFF7C2FF10BD08B501210820FFF782F9AF
:101540004FF40070ADF8000010208DF80300032068
:101550008DF8020069463048001FFEF7D7FE4FF4B1
:1015600000712D48001FFEF77EFFFFF719FFFFF700
:1015700032FF08BD2DE9F04F87B0FFF7D0FFFFF72E
:101580000FFFFFF728FFCC20FFF796FFBE20FFF7E5
:1015900093FFFFF780FF8346FFF77DFF0446072C8C
:1015A00008DDE043C4B26FEA0B0000F0FF0B4FF020
:1015B000000A01E04FF0010AA1464FEA09200FFAA4
:1015C00080F909EB0B000FFA80F9484600F041FC66
:1015D000019000F066FC07460022124B00F0C7FBAA
:1015E0000022114BCDE9020100F0C1FB00220F4B9C
:1015F000CDE9040100F014FB054600F033FC0FFABE
:1016000080F9BAF1000F03D0484607B0BDE8F08F6B
:10161000C9F1000000B2F8E7040C0140A4812142A6
:10162000008021420000B03F000059400000E03F30
:1016300008B501210420FFF705F90720ADF80000E7
:1016400010208DF8030003208DF8020069462A4817
:10165000FEF75CFE07212848FEF707FF08BD0821BA
:1016600015E000F080021AB10122244B1A6002E05A
:101670000022224B1A604206100E00221F4B083B2C
:101680001A6001221E4BC3F880214A1ED1B20129E3
:10169000E7DA7047F0B585B004460D46142219A16B
:1016A000684600F0ABFA00271DF80560012C06D053
:1016B000022C06D0032C06D0042C0BD108E00827FE
:1016C00009E0042707E0022706F18000C6B202E025
:1016D000012700E000BF00BF3046FFF7C0FF3846DB
:1016E000FFF7BDFF00200549091F086001200449DC
:1016F000C1F8840105B0F0BD000801408801214215
:1017000000002142C0F9A4B0999282F880908CBF69
:10171000C6A186FFF77F000008B503208DF8000002
:1017200002208DF8010001208DF802008DF80300E1
:101730006846FFF74CFB08BDF0B503460C4615465E
:10174000642093FBF0F0C6B2642093FBF0F700FB3B
:101750001730C1B2132E02DD01F16400C1B2084698
:10176000CF1701EB977701EBA707BAB2072092FBDF
:10177000F0F700FB172082B25719601EDFF864C42F
:101780001CF80000384482B2CF1701EB9777BF10E6
:10179000A1EB87071FB9032C01DA501E82B2072084
:1017A00092FBF0F700FB1720C0B2F0BD0146CA174C
:1017B00001EB92729210A1EB820292B9642091FB2C
:1017C000F0F200FB121050B94FF4C87091FBF0F228
:1017D00000FB121008B9012070470020FCE701202F
:1017E000FAE70020F8E72DE9F04105460F464FF0F3
:1017F000000800240026FC48B7FBF0F4A04539D0CF
:101800001FFA84F840F2B27610E03046FFF7CEFFC0
:1018100040B1B4F5B77F02D3A4F5B77404E0701CEF
:1018200086B206E0A4F26D14701C86B2B4F5B67FE1
:10183000EBD800BFAE80002615E0A888FFF7B6FF02
:1018400030B1012E04D11D2C01D31D3C09E00CE068
:10185000E648805DA04203D8E448805D241A00E099
:1018600003E0701C86B21C2CE7D200BF701CA8716C
:10187000601CE871DC48B7FBF0F100FB11744FF419
:101880006160B4FBF0F028704FF46160B4FBF0F1DC
:1018900000FB11403C21B0FBF1F068704FF4616037
:1018A000B4FBF0F100FB11403C21B0FBF1F201FB75
:1018B0001200A870EA79A979A888FFF73DFF28727D
:1018C0000020BDE8F08110B50024FFF7F7F90446C9
:1018D0002146C748FFF787FF002010BD10B5002440
:1018E00001214FF0C050FEF7BAFF0120FFF7E3FAE5
:1018F0000220FFF71DFB10B10220FFF723FB04209D
:10190000FFF75CFB44F25641884239D0FFF728FBD1
:101910000120FEF704FF04E0601CC4B20A20FFF7B8
:101920002BFC4120FEF764FE08B9642CF4DB642C28
:1019300001DB012010BD4FF48070FEF70CFF012089
:10194000FEF70FFFFFF7F6F9FFF7FDF90121084653
:10195000FFF794F901210220FFF790F9FFF7EAF968
:10196000FFF799F947F6FF70FFF7BEF9FFF7E2F9C5
:10197000FFF79AF944F256410420FFF71AFB09E0F9
:1019800001210846FFF77AF901210220FFF776F9D5
:10199000FFF7D0F9FFF7C0FEFFF795FF0020C9E77A
:1019A00070B504460025FFF789F90546294620460B
:1019B000FFF719FF002070BD2DE9F04705460E46E0
:1019C00017469846DDE9089A002340F2B270854236
:1019D00003DB40F63300854202DD0120BDE8F087DD
:1019E00040F2B2740AE02046FFF7E0FE10B18148F1
:1019F000034401E080480344601C84B2AC42F2DB43
:101A0000701EC6B2002410E07848005D40F2A321A9
:101A1000484303EBC0132846FFF7C8FE18B1012C5A
:101A200001D171480344601C84B2B442ECDB781EDF
:101A300040F2A321484303EBC013C8EB4810C0EBAE
:101A4000082003EB0013C9EB091003EB8003534498
:101A50001846C3E72DE9FC4704460D4616461F46C7
:101A6000DDE90A8A4FF000093B4632462946204606
:101A7000CDE9008AFFF7A0FF814601214FF0C05059
:101A8000FEF7EDFE0120FFF716FA4846FFF71FF9B3
:101A9000FFF750F90020BDE8FC872DE9FC4704461C
:101AA0000D4616461F46DDE90A8A4FF000093B46FF
:101AB000324629462046CDE9008AFFF77DFF814660
:101AC00001214FF0C050FEF7CAFE0120FFF7F3F9E5
:101AD0004846FFF717F9FFF72DF90020BDE8FC870E
:101AE00030B5044604EB4400C0004FF46165684320
:101AF000C1EB4115C5EB012500EB0510C2EB02154A
:101B000000EB8500184430BD2DE9F04704460D4632
:101B100016461F464FF000083B46324629462046EF
:101B2000FFF7DEFF814601214FF0C050FEF797FE20
:101B30000120FFF7C0F9FFF7C1F8804608EB090064
:101B4000FFF7E0F8FFF7F6F8BDE8F0870FB47CB5D3
:101B5000002400259DF81A009DF81910CDE9001009
:101B60009DF818309DF81F209DF81E10BDF81C0030
:101B7000FFF722FF04469DF826009DF82510CDE9C9
:101B800000109DF824309DF82B209DF82A10BDF8F8
:101B90002800FFF711FF0546281B7CBC5DF814FBED
:101BA00010B500240220FFF7F3F870B10220FFF710
:101BB000FFF80120FFF77FF9FFF76DF8FFF7BAF89C
:101BC000FFF772F80020FFF776F90120FFF7E0F841
:101BD00008B1FFF778FE0520FFF7EAF8FFF7AAF84B
:101BE00010BD00009620000880510100A2200008CE
:101BF000840000200085E2018033E10140EA010316
:101C00009B0703D009E008C9121F08C0042AFAD2B2
:101C100003E011F8013B00F8013B521EF9D2704776
:101C20002DE9FE4F804681EA0300C00F0C4600906C
:101C300021F0004123F00045B8EB0200A94105D294
:101C40004046214690461C460B46024623F0004083
:101C5000104347D0270DC7F30A00C3F30A5102907F
:101C6000401A019040286BDAC3F3130040F4801B44
:101C70000098924620B10023D2EB030A63EB0B0BD2
:101C800001985946C0F14002504600F01DF9064641
:101C90000D4650465946019A00F035F910EB080000
:101CA0006141002487EA115284EAE7731A4340D065
:101CB000009A62B3019A012A4FEA075215DC001B11
:101CC00061EB02014FF0004202EA0752CDE9004207
:101CD000001C41F5801132462B4600F06CF903B030
:101CE000BDE8F08F40462146F9E7001B61EB020199
:101CF000001C41F5801300185B412018A2F5001765
:101D000047EB030140EAD570B6196D4111E06D084B
:101D10004FEA360645EAC0754FEA0752001B61EBF1
:101D20000201001C41F5801149084FEA30000019FA
:101D3000514132462B4603B0BDE8F04F00F02CB9BC
:101D40000098012240000023D0EB020263EBE07315
:101D5000009821464FEAE074B8EB000061EB040103
:101D6000E9E783F000435BE781F0004158E72DE9A4
:101D7000FE4F81EA030404F0004421F00041009486
:101D80004FF0000B23F0004350EA01045ED052EA0A
:101D900003045BD0C3F30A54C1F30A552C44A4F2E4
:101DA000F3340194A0FB0254C1F3130141F48011F8
:101DB000C3F3130343F4801301FB024400FB034EFF
:101DC000840A970A44EA815447EA8357A4FB0768C8
:101DD00002958D0A05FB07854FEA932C04FB0C54F2
:101DE0002705029D4FEA065847EA1637B5EB080566
:101DF0006EEB070C870E920E47EA811742EA8312B8
:101E0000A7FB0201B6EB0B0164EB00042B0D43EAC8
:101E10000C335E1844EB1C50DA465146E7FB0201D6
:101E2000C5F313044FEA0B3343EA14534FEA043269
:101E3000019C43EA0603A4F10C040294009CCDE942
:101E400000B400F0B8F803B0BDE8F08F0020014600
:101E5000F9E7C10F80EAE0700844CA079623002121
:101E600000F06CB870B5C1F30A5201F000450024CF
:101E7000C1F3130140F2FF3341F480119A4201DAB9
:101E8000002070BD40F233439A42A2F2334203DC99
:101E9000524200F028F800E090402C43F1D040423C
:101EA00070BD00F0004230F000400AD0C10D01F5D5
:101EB0006071C0F3160042EA0151C20840071143A5
:101EC0007047002001467047202A04DB203A00FAC0
:101ED00002F1002070479140C2F1200320FA03F381
:101EE000194390407047202A04DB203A21FA02F07F
:101EF0000021704721FA02F3D040C2F12002914044
:101F0000084319467047202A06DBCB17203A41FACE
:101F100002F043EAE07306E041FA02F3D040C2F176
:101F2000200291400843194670470029A8BF704716
:101F3000401C490008BF20F00100704710B4B0FAFF
:101F400080FC00FA0CF050EA010404BF10BC70479A
:101F500049B1CCF1200421FA04F411FA0CF118BFB4
:101F6000012121430843A3EB0C01CB1D4FEA006183
:101F70004FEA102042BF002010BC704700EBC35056
:101F800010440029A4BF10BC7047401C490008BF82
:101F900020F0010010BC704710B5141E73F100044E
:101FA00008DA401C41F1000192185B411A4301D14B
:101FB00020F0010010BD2DE9F04D92469B4611B175
:101FC000B1FA81F202E0B0FA80F220329046FFF7D7
:101FD0007BFF04460F4640EA0A0041EA0B015346E4
:101FE0005A46084313D0114653EA010019D0C8F1EC
:101FF00040025046FFF777FF05460E4650465946C9
:102000004246FFF761FF084305D0012004E0204667
:102010003946BDE8F08D0020054346EAE0762C43C2
:1020200037430A986305E40AA0EB08000022FD0A82
:1020300044EA47540A3002D500200146E9E7010589
:1020400010196941DDE9084500196941BDE8F04D05
:10205000A2E70000064C074D06E0E06840F00103EF
:1020600094E8070098471034AC42F6D3FEF742F8E4
:10207000B0200008D020000802E008C8121F08C1E4
:10208000002AFAD170477047002001E001C1121FF9
:10209000002AFBD170470003030601040602050075
:1020A00003051F1C1F1E1F1E1F1F1E1F1E1F0000BB
:1020B000D020000800000020200000007820000848
:1020C000F020000820000020700400008820000894
:1020D00000000000010203040102030406070809CE
:1020E00002040608000000000000000000000000DC
:04000005080000ED02
:00000001FF
