:020000040800F2
:10000000B804002001010008FD010008FF010008FC
:1000100003020008070200080B02000800000000AD
:100020000000000000000000000000000F020008B7
:100030001102000800000000130200081502000869
:100040001B0100081B0100081B0100081B01000820
:100050001B0100081B0100081B0100081B01000810
:100060001B0100081B0100081B0100081B01000800
:100070001B0100081B0100081B0100081B010008F0
:100080001B0100081B0100081B0100081B010008E0
:100090001B0100081B0100081B0100081B010008D0
:1000A0001B0100081B0100081B0100081B010008C0
:1000B000232A0008392A00081B0100081B01000838
:1000C0001B0100081B0100081B0100081B010008A0
:1000D0001B010008AD1B00081B0100081B010008E4
:1000E0001B0100081B0100081B010008DFF80CD0F1
:1000F00002F04EFF0048004739010008B804002014
:100100000648804706480047FEE7FEE7FEE7FEE7B1
:10011000FEE7FEE7FEE7FEE7FEE7FEE7E11900087F
:10012000ED00000810B53248B0F900103148B0F9C0
:10013000000002F030F910BD00260024002501F077
:100140004FFC482001F076FC01F0A2FD4FF4A060C6
:1001500000F082FD4FF4164001F0DAFC01F09EFF42
:1001600001F0EEFF4021084601F0AFFE64214FF49C
:10017000E15002F0ABF802F08CF838E042F228309F
:1001800085422CDD002501F005FE08BB042001F0AE
:100190006BFC01F073FE18490870084600780E28C1
:1001A00009D1701CC6B2C82E05DD00260CB901208D
:1001B00000E00020044694B9002601F0D3FF0C486B
:1001C000B0F900100B48B0F9000002F0E4F806E0C6
:1001D0000026002400200849087002F0C9F80CB17C
:1001E000FFF7A0FF681C85B2012001F05CFCC5E7A9
:1001F000200000201E00002046000020704700BFA5
:10020000FEE700BFFEE700BFFEE700BFFEE7704766
:10021000704770477047000010B50446C649601A21
:100220008C422FD009DCC548204480B1B0F5806FE6
:1002300016D0B0F5006F4AD11BE0B0F5806F2AD020
:10024000B0F5006F30D0B0F5406F40D135E00121FE
:10025000042000F0FFFA0021042000F0FBFA37E050
:100260000121082000F0F6FA0021082000F0F2FA3F
:100270002EE00121102000F0EDFA0021102000F006
:10028000E9FA25E00121202000F0E4FA00212020F5
:1002900000F0E0FA1CE00121402000F0DBFA002130
:1002A000402000F0D7FA13E00121802000F0D2FABC
:1002B0000021802000F0CEFA0AE00121080200F0BF
:1002C000C9FA00214FF4807000F0C4FA00E000BFCA
:1002D00000BF10BD10B50121084600F0BBFA002197
:1002E000012000F0B7FA10BD2DE9F04102460025CB
:1002F0000026002000230024002791F803C00CF002
:100300000F0591F803C00CF0100CBCF1000F03D0E6
:1003100091F802C04CEA050591F800C0BCF1000F4D
:1003200031D0146800202BE04FF0010C0CFA00F3E0
:10033000B1F800C00CEA03069E4220D183004FF0C2
:100340000F0C0CFA03F7BC4305FA03FC4CEA040457
:1003500091F803C0BCF1280F06D14FF0010C0CFA44
:1003600000FCC2F814C00AE091F803C0BCF1480FC9
:1003700005D14FF0010C0CFA00FCC2F810C0401C73
:100380000828D1D31460B1F800C0BCF1FF0F34DDF0
:10039000546800202EE000F1080C4FF0010808FA24
:1003A0000CF3B1F800C00CEA03069E4221D1830091
:1003B0004FF00F0C0CFA03F7BC4305FA03FC4CEAB0
:1003C000040491F803C0BCF1280F05D100F1080C1A
:1003D00008FA0CF8C2F8148091F803C0BCF1480F79
:1003E00007D100F1080C4FF0010808FA0CF8C2F828
:1003F0001080401C0828CED35460BDE8F0814FF631
:10040000FF710180022181700421C1707047024692
:10041000002093680B400BB1012000E000207047E2
:100420000146886880B2704702460020D3680B40BE
:100430000BB1012000E0002070470146C86880B27F
:10044000704701617047416170470AB1016100E086
:1004500041617047C16070474FF480320A43826146
:100460008161826182698269704702460020344B53
:1004700018684FF68073184040EA02100843304B6A
:10048000186070472F49C8617047F0B50A460023CD
:100490000024002100252A4E7168C0F3034583B271
:1004A00000F44016B6F5401F08D121F07061244ECB
:1004B000766826F07066224F7E6012E000F48016A7
:1004C000B6F5801F06D1032606FA05F4A14341F0D4
:1004D000706106E0460D360103FA06F6B14341F0BD
:1004E000706122B1460D360103FA06F63143144E0F
:1004F0007160F0BD30B500228B071C0F0F2303FA8B
:1005000004F20F4B08338C1053F8243093430C4CF7
:1005100008348D1044F8253023468C1053F82430CD
:100520008C07240F00FA04F42343054C08348D1083
:1005300044F8253030BD00000014014000F8FEBF33
:100540000000014000002042DE48006840F0010049
:10055000DC49086008464068DB490840D9494860E2
:1005600008460068D9490840D6490860084600682E
:1005700020F4802008600846406820F4FE004860AF
:10058000002088607047CF49096821F48031CD4A46
:1005900011601146096821F480211160B0F5803F97
:1005A00003D0B0F5802F0ED106E0C649096841F4AA
:1005B0008031C44A116007E0C249096841F4A021B2
:1005C000C04A116000E000BF00BF704710B501468F
:1005D0000022002300204A11012A02D1B94C2368CD
:1005E00006E0022A02D1B74C236A01E0B54C636AE7
:1005F00001F01F02012494401C400CB1012000E0D6
:10060000002010BD38B5002000900024002500BF58
:100610003120FFF7DBFF05460098401C00901DB914
:100620000098B0F5A06FF3D13120FFF7CFFF08B1EC
:10063000012400E00024204638BD01460020A14AE4
:10064000106820F0F80040EAC10010607047A0492F
:1006500008607047024600209A4B586820F47C10CE
:1006600042EA01031843974B58607047984908665F
:10067000704701460020934A506820F00300084369
:10068000506070478F48406800F00C00704701468A
:1006900000208C4A506820F0F000084350607047FA
:1006A00001460020874A506820F4E060084350600B
:1006B000704701460020834A506820F4605040EAA9
:1006C000C1005060704729B17E4A527A02437D4B87
:1006D0005A7204E07B4A527A82437A4B5A727047CC
:1006E0007B49D8310860704701460020754A506840
:1006F00020F440400843506070470021714A203286
:100700001170704A82F82010012802D004280AD102
:1007100004E001216B4A2032117005E00521694A8D
:100720002032117000E000BF00BF704769490860C7
:1007300070476449096A0143624A1162704765491A
:1007400044390860704730B500210022002400239E
:100750005C4D6D6805F00C0121B1042905D0082914
:1007600023D105E05C4D056022E05B4D05601FE094
:10077000544D6D6805F47012022505EB9242514DFF
:100780006D6805F480341CB9544D554305600BE089
:100790004C4D6D6805F400351DB1504D5543056055
:1007A00002E04D4D5543056002E04B4D056000BF32
:1007B00000BF444D6D6805F0F0010909484D6B5CC0
:1007C0000568DD4045603F4D6D6805F4E061090A4C
:1007D000434D6B5C4568DD4085603A4D6D6805F4BE
:1007E0006051C90A3E4D6B5C4568DD40C560354DC2
:1007F0006D6805F44041890B3A4D6B5CC568B5FBEB
:10080000F3F5056130BD29B12E4A526902432D4BE3
:100810005A6104E02B4A526982432A4B5A6170475D
:1008200029B1284A92690243264B9A6104E0254A7D
:1008300092698243234B9A61704729B1214AD26958
:100840000243204BDA6104E01E4AD26982431D4B09
:10085000DA61704729B11B4AD2680243194BDA604A
:1008600004E0184AD2688243164BDA60704729B117
:10087000144A12690243134B1A6104E0114A1269C7
:100880008243104B1A617047124940390860704723
:100890000F49C86470470B49C87170470948406ADE
:1008A00040F0807007494862704701460020054AC1
:1008B00092680A400AB1012000E000207047014917
:1008C00088727047001002400000FFF8FFFFF6FE3C
:1008D000000042428004424200127A0000093D00BA
:1008E000000000201000002010B50446D749601A0F
:1008F0008C422BD006DCD648204498B1B0F5806FEE
:1009000038D119E0B0F5806F2AD0B0F56C4F31D1F5
:1009100001218803FFF79EFF00214FF48040FFF77D
:1009200099FF28E001214804FFF7A1FF00214FF4BF
:100930000030FFF79CFF1EE001218804FFF797FFBE
:1009400000214FF48020FFF792FF14E00121C8043A
:10095000FFF78DFF00214FF40020FFF788FF0AE02A
:1009600001210805FFF783FF00214FF48010FFF7F6
:100970007EFF00E000BF00BF10BD2DE9F04786B04C
:1009800005460E460024A24600BF00BF00272F46A2
:100990002C8A4CF6FF700440F08804432C82AC890A
:1009A0004EF6F3100440B08831890843718908433A
:1009B0000443AC81AC8A4FF6FF400440B089044345
:1009C000AC8201A8FFF7BFFEA248874202D1DDF842
:1009D00010A001E0DDF80CA00AEBCA0000EB0A1041
:1009E00031688900B0FBF1F86420B8FBF0F0040135
:1009F0002009642101FB1089322000EB0910B0FBB3
:100A0000F1F000F00F0004432C8106B0BDE8F08740
:100A10004FF41651016000218180C18001810C21B9
:100A2000418100218181704710B502460020108A63
:100A30004FF2FF0318400B884C8823438C882343D4
:100A4000CC8823431843108210BD002101804180CF
:100A50008180C180704721B1828942F40052828135
:100A600004E082894DF6FF731A4082817047F0B529
:100A7000034600240026002500201846C1F3421436
:100A800001F01F06012707FA06F5012C01D10C30F1
:100A900004E0022C01D1103000E014301AB10768D4
:100AA0002F43076002E00768AF430760F0BD1AB14B
:100AB000838A0B43838202E0838A8B43838270475D
:100AC000028A4FF6F0731A400282028A0A430282B7
:100AD000704782894FF2FF731A40828182890A43EC
:100AE0008281704721B1828942F00202828104E052
:100AF00082894FF6FD731A4082817047028A4FF651
:100B0000DF731A400282028A0A430282704721B1CF
:100B1000028A42F48042028204E0028A4BF6FF73AA
:100B20001A4002827047C1F3080282807047014672
:100B30008888C0F308007047818941F001018181F4
:100B40007047028BD2B20283028B42EA01220283F7
:100B50007047028B02F47F420283028B0A430283B6
:100B6000704721B1828A42F02002828204E0828AA8
:100B70004FF6DF731A408282704721B1828A42F0B9
:100B80001002828204E0828A4FF6EF731A4082825A
:100B9000704721B1828A42F00802828204E0828A90
:100BA0004FF6F7731A4082827047828A4FF6FB73C2
:100BB0001A408282828A0A438282704721B1828AE5
:100BC00042F00202828204E0828A4FF6FD731A40EC
:100BD000828270470246002013880B400BB101202F
:100BE00000E000207047CA430280704770B502469B
:100BF0000B460024002100250020C3F3421503F01A
:100C00001F01012606FA01F1012D02D1968931401A
:100C100006E0022D02D1168A314001E0968A314069
:100C20001C12012606FA04F41688344011B10CB1E6
:100C3000012000E0002070BD10B5002200230A1240
:100C400001249440A3B2DC43048010BD004C00405A
:100C500000BCFFBF0038014031490143314A1160F7
:100C6000704770B5002100230F22C47804B32D4CC7
:100C7000246804F4E064C4F5E064210AC1F10403CB
:100C8000CA40447804FA03F18478144021430901EE
:100C9000254C0678A155047804F01F050124AC40CA
:100CA00005786D11AD0005F1E025C5F8004109E0BA
:100CB000047804F01F050124AC401C4D0678761121
:100CC00045F8264070BD1A4A0A400243154B1B1FC7
:100CD0001A60704739B1134A121D12680243114B52
:100CE0001B1D1A6006E00F4A121D126882430D4B4D
:100CF0001B1D1A607047042808D14FF0E0210969D4
:100D000041F004014FF0E022116107E04FF0E021D3
:100D1000096921F004014FF0E022116170470000E1
:100D20000000FA050CED00E000E400E080E100E0E6
:100D300080FFFF1F10B50446F749601A8C4245D06A
:100D40000CDCB4F1804F1DD0F448204418B3B0F54A
:100D5000806F29D0B0F5006F54D12EE0B0F5806FD0
:100D60003DD0B0F58E3F03D0B0F5923F4AD13FE081
:100D70000121C802FFF76EFD00214FF40060FFF76C
:100D800069FD40E001210846FFF771FD00210120C7
:100D9000FFF76DFD37E001210220FFF768FD00211C
:100DA0000220FFF764FD2EE001210420FFF75FFD24
:100DB00000210420FFF75BFD25E001210820FFF75B
:100DC00056FD00210820FFF752FD1CE001211020F4
:100DD000FFF74DFD00211020FFF749FD13E0012131
:100DE0002020FFF744FD00212020FFF740FD0AE00E
:100DF00001214803FFF72EFD00214FF40050FFF7BB
:100E000029FD00E000BF00BF10BD028802F08F0284
:100E10000280CA884B881A4303881A4302808A8852
:100E200082850A880285BE4A904202D0BD4A90421D
:100E300001D10A7A028601228282704770B50024AD
:100E400000220023058C4FF6FE7635400584028C87
:100E50008388048B4FF68F752C400D882C43751EAC
:100E60002A400D892A434D882A43CD888586AC4D7A
:100E7000A84202D0AB4DA84213D14FF6F7752A40D5
:100E80004D892A434FF6FB752A408D882A4347F641
:100E9000FF652B4047F6FF552B408D892B43CD89AD
:100EA0002B4383800483028470BD70B5002400222C
:100EB0000023058C4FF6EF7635400584028C83883D
:100EC000048B48F6FF752C400D884FF6FF7606EA36
:100ED00005252C434FF6DF752A400D8906EA0515D6
:100EE0002A434D8806EA05152A43CD8805878C4D8F
:100EF000A84202D08B4DA8421DD14FF67F752A40E3
:100F00004D894FF6FF7606EA05152A434FF6BF7561
:100F10002A408D8806EA05152A4347F6FF352B40FF
:100F200047F2FF752B408D8906EA85052B43CD8955
:100F300006EA85052B4383800483028470BD70B567
:100F4000002400220023058C4FF6FF6635400584FF
:100F5000028C8388848B4FF68F752C400D882C4330
:100F60004FF6FF552A400D894FF6FF7606EA052514
:100F70002A434D8806EA05252A43CD888587684D92
:100F8000A84202D0674DA8421DD14FF2FF752A40FA
:100F90004D894FF6FF7606EA05252A434FF6FF35C1
:100FA0002A408D8806EA05252A4346F6FF752B4020
:100FB00045F6FF752B408D8906EA05152B43CD8933
:100FC00006EA05152B4383808483028470BD70B5C7
:100FD000002400220023058C4EF6FF763540058460
:100FE000028C8388848B48F6FF752C400D884FF661
:100FF000FF7606EA05252C434DF6FF752A400D893C
:1010000006EA05352A434D8806EA05352A43CD8888
:10101000A0F84050424DA84202D0424DA84207D10C
:10102000C3F30D038D894FF6FF7606EA85152B4332
:1010300083808483028470BD828B4FF2FF331A4019
:101040008283828B4FF6FF7303EA01231A43828364
:101050007047F0B50C461546002100220026078C8B
:101060004EF6FF7C07EA0C070784818B028C4FF653
:10107000FF7707EA043640F6FF4739404FF6FF771F
:1010800007EA05274FF6FF7C0CEA033C47EA0C070A
:1010900039434DF6FF773A4046F480573A4381830F
:1010A0000284F0BD828B4FF6F3731A408283828BE9
:1010B0000A4382837047F0B50C4615460021002292
:1010C0000026078C4FF6FF6C07EA0C070784818B1C
:1010D000028C4FF6FF7707EA04264FF60C7739406B
:1010E0004FF6FF7707EA03172F4339434FF6FF57B1
:1010F0003A4046F480773A4381830284F0BD028B04
:101100004FF2FF331A400283028B4FF6FF7303EA5C
:1011100001231A43028370470010004000FCFFBF08
:10112000002C014000340140F0B50C46154600216A
:1011300000220026078C4FF6EF7C07EA0C07078495
:10114000018B028C4FF6FF7707EA041640F6FF4743
:1011500039404FF6FF7707EA033739434FF6FF77F9
:1011600007EA052739434FF6DF773A4046F0100784
:101170003A4301830284F0BD028B4FF6F3731A40A9
:101180000283028B0A4302837047F0B50C46154672
:1011900000210022068C4FF6FE773E400684018B2C
:1011A000028C4FF60C7631407E1C06EA03162E4365
:1011B00031437E1E324044F00106324301830284F3
:1011C000F0BD70B505460C46208850B92389A28829
:1011D00061882846FFF7D9FFE1882846FFF7CCFF52
:1011E00025E0208804280AD12389A288618828461E
:1011F000FFF79AFFE1882846FFF781FF17E0208874
:1012000008280AD12389A28861882846FFF753FF5E
:10121000E1882846FFF746FF09E02389A288618814
:101220002846FFF716FFE1882846FFF705FF70BD47
:101230002DE9F04105460C4600260127608808B9D3
:10124000022600E00026A088012801D1022700E044
:1012500001272088A0B92389A28861882846FFF742
:1012600094FFE1882846FFF787FF23893A463146F5
:101270002846FFF759FFE1882846FFF740FF13E0B3
:101280002389A28861882846FFF74EFFE188284617
:10129000FFF735FF23893A4631462846FFF775FFA9
:1012A000E1882846FFF768FFBDE8F0810A884B888F
:1012B0001A438B881A43CB881A430B891A434B89EC
:1012C0001A438B891A43A0F8442070474FF6FF71E8
:1012D000818000210180C18041800172704700211E
:1012E000018041808180C180018141818181C181F2
:1012F0007047002101804180012181800021C1804F
:10130000018170470021018041808180C18001817D
:1013100041818181704721B1028842F0010202803F
:1013200004E0028840F2FE331A400280704731B177
:10133000B0F8442042F40042A0F8442005E0B0F8A0
:101340004420C2F30E02A0F8442070471AB18389EA
:101350000B43838102E083898B43838170478182C1
:10136000704741EA0203A0F8483070471AB18389F8
:101370000B43838102E083898B438381704701891A
:101380004FF6F8721140018170470A460021018929
:101390004FF68F73194011430181704730B50446F1
:1013A0000D4629462046FFF7F0FF208940F0070050
:1013B000208130BD2DE9F04104460D4616461F46FA
:1013C000602D06D13B46012231462046FFF7ACFE98
:1013D00005E03B46012231462046FFF7D6FE29466E
:1013E0002046FFF7D2FF208940F007002081BDE8AA
:1013F000F08170B50C4600210189C9B244EA0205AA
:101400004FF6FF7606EA032635432943018170BD76
:101410002DE9F04105460E461746984600244346FE
:101420003A4631462846FFF7E4FF2C894FF6F8701C
:10143000044044F007044FF68F70044044F07004F9
:101440002C81BDE8F081F0B504460D4616461F46D6
:101450003B46324629462046FFF7CBFF208940F421
:1014600080402081F0BD0185828270470A460021BC
:10147000018840F28F331940114301807047F0B565
:101480000C4615461E460021002200230189028BCE
:10149000038C4FF6F877394021434FF6FC473A402A
:1014A00040F201173A434FF6DD773B404FF6FF77A6
:1014B00007EA06172F433B43018102830384F0BDF3
:1014C0000A460021018B4FF68F73194011430183A7
:1014D00070470A460021018B48F6FF7319404FF60A
:1014E000FF7303EA02231943018370470A46002170
:1014F000818B4FF68F7319401143818370470A46E1
:101500000021818B48F6FF7319404FF6FF7303EA01
:10151000022319438183704721B1028842F080027F
:10152000028004E0028840F27F331A400280704754
:1015300021B1828842F00402828004E082884FF662
:10154000FB731A408280704721B1828842F0080202
:10155000828004E082884FF6F7731A4082807047D9
:1015600021B1828842F00102828004E082884FF635
:10157000FE731A40828070470A460021018B4FF6A5
:10158000F77319401143018370470A460021018B0C
:101590004FF2FF7319404FF6FF7303EA022319431A
:1015A000018370470A460021818B4FF6F77319407B
:1015B0001143818370470A460021818B4FF2FF73EC
:1015C00019404FF6FF7303EA0223194381837047E2
:1015D0000A460021018B4FF6FB731940114301832A
:1015E00070470A460021018B4FF6FF3319404FF632
:1015F000FF7303EA02231943018370470A4600215F
:10160000818B4FF6FB7319401143818370470A4663
:101610000021818B4FF6FF3319404FF6FF7303EA29
:1016200002231943818370470A460021018B4FF63C
:101630007F7319401143018370470A460021018BD3
:10164000C1F30E014FF6FF7303EA0223194301832E
:1016500070470A460021818B4FF67F731940114372
:10166000818370470A460021818BC1F30E014FF63A
:10167000FF7303EA02231943818370470A4600215E
:10168000018C4FF6FD7319401143018470470A46DF
:101690000021018C4FF6F773194011430184704704
:1016A0000A460021018C4FF6DF7319404FF6FF7395
:1016B00003EA02131943018470470A460021018C92
:1016C0004FF67F7319404FF6FF7303EA0213194375
:1016D000018470470A460021018C4FF6FF531940E0
:1016E0004FF6FF7303EA02231943018470470A4649
:1016F0000021018C4FF2FF7319404FF6FF7303EA8C
:1017000002231943018470470A460021018C4DF6DB
:10171000FF7319404FF6FF7303EA02331943018444
:10172000704710B5038C01248C40A3430384038CC1
:1017300002FA01F4A4B22343038410BD10B5038C54
:1017400004248C40A3430384038C02FA01F4A4B262
:101750002343038410BD30B5038C01248C40A34384
:10176000038409B1082918D100F1180303EB6103C0
:101770001B684FF68F74234000F1180404EB6104DA
:10178000236000F1180303EB61031B68134300F1AE
:10179000180404EB610423601FE00B1FC3F34E0425
:1017A00000F118031B5948F6FF7423400C1FC4F3C3
:1017B0004E0500F1180463510B1FC3F34E0400F1F2
:1017C00018031B594FF6FF7404EA022423430C1F2D
:1017D000C4F34E0500F11804635130BD21B10288F5
:1017E00042F00202028004E0028840F2FD331A4017
:1017F0000280704721B1028842F00402028004E0B6
:10180000028840F2FB331A400280704721B182887F
:1018100042F08002828004E082884FF67F731A4093
:1018200082807047028840F2F7331A4002800288B3
:101830000A430280704782884FF68F731A40828075
:1018400082880A438280704702894FF6F8731A40F3
:10185000028102890A430281704702894FF67F7331
:101860001A40028102890A430281704781847047CD
:1018700081857047818670470187704781877047EF
:10188000A0F8401070470288D2B2028002880A4352
:10189000028070470146888E70470146088F704766
:1018A0000146888F70470146B1F8400070470146F5
:1018B000888C70470146088D704702460020138AC5
:1018C0000B400BB1012000E000207047CA430282A8
:1018D000704730B50246002000230024158A05EA2F
:1018E0000103958905EA010413B10CB1012000E060
:1018F000002030BDCA430282704700000CB50020B2
:10190000019000904748006840F4803045490860E5
:1019100000BF4448006800F4003000900198401C6B
:101920000190009818B90198B0F5A06FF1D13D4829
:10193000006800F4003010B10120009001E00020A8
:1019400000900098012844D13748006840F010000A
:10195000354908600846006820F003000860084622
:10196000006840F0020008602E4840682D49486039
:101970000846406848600846406840F48060486017
:101980000846406820F47C1048600846406840F4EF
:10199000E81048600846006840F08070086000BFAA
:1019A0002048006800F000700028F9D01D48406809
:1019B00020F003001B4948600846406840F00200E0
:1019C000486000BF1748406800F00C000828F9D1B3
:1019D00001E000BFFEE70CBD10B5FFF78FFF10BDA3
:1019E00010B51048006840F001000E490860084634
:1019F00040680E4908400B494860084600680C4999
:101A00000840084908600846006820F48020086003
:101A10000846406820F4FE00486000208860FFF718
:101A2000DBFF10BD00100240002002400000FFF864
:101A3000FFFFF6FE10B504466FF00400FFF75BF9F8
:101A4000E11704EB5171C1F3C701264A117010462A
:101A5000007800EB4001C1EBC0104FF6FF7101EAC6
:101A6000C0002149088010BD01461F4A12884A4320
:101A70004FF0E0235A6100229A611A46126942F03F
:101A800001021A6100BF4FF0E022106900F001026C
:101A90001AB100F48032002AF5D000224FF0E02382
:101AA0001A619A61704701460E4A12784A434FF014
:101AB000E0235A6100229A611A46126942F001023B
:101AC0001A6100BF4FF0E022106900F001021AB164
:101AD00000F48032002AF5D000224FF0E0231A6192
:101AE0009A617047140000201600002000BF704764
:101AF00070B504460D46E1B26148FFF714F800BF27
:101B00005F48008800F080000028F9D0204670BDB2
:101B100010B586B00446012144F20500FEF780FEB0
:101B20005748FEF7E1FE4FF40070ADF814000320B3
:101B30008DF8160018208DF8170005A95148FEF7FA
:101B4000D3FB4FF48060ADF8140048208DF81700E7
:101B500005A94C48FEF7C8FB25208DF81000012090
:101B60008DF811008DF812008DF8130004A8FFF70E
:101B700078F800940020ADF80400ADF80600ADF848
:101B80000800ADF80C000C20ADF80A0069463C488E
:101B9000FEF7F3FE012240F225513948FEF767FFB8
:101BA00001213748FEF757FF06B010BD10B540F2CF
:101BB00025513348FFF71AF810B33148FEF7B7FF45
:101BC000C4B23148008800F40040C8B92E480088EB
:101BD00000F4804060B10A2C03D000202A4908801C
:101BE00020E02948008840F400402749088019E097
:101BF0000D2C06D12448008840F4804022490880FA
:101C000010E021480088C0F30D0020490C541E4804
:101C10000088401C1C49088008460088632801DDB4
:101C20000020088010BD70B505460C4620212846CE
:101C3000FEF7D0FF08B9012070BD2846FEF777FFF8
:101C400020700020F8E770B504460D46294620466E
:101C5000FEF769FF00BF80212046FEF7BBFF00288A
:101C6000F9D070BD70B505460C4604E021782846D1
:101C7000FFF7E9FF641C20780028F7D170BD000051
:101C800000380140000801401C00002048000020EE
:101C900008B501210D20FEF7C3FD01211B48FEF709
:101CA000F4FB1020ADF800008DF8030003208DF840
:101CB000020069461648FEF717FB10211448FEF78C
:101CC000C2FB0820ADF8000010208DF803000320AF
:101CD0008DF8020069460E48FEF706FB08210C4805
:101CE000FEF7B1FB4FF40040ADF8000010208DF876
:101CF000030003208DF8020069460648FEF7F4FA57
:101D00004FF400410348FEF79EFB08BD000230007F
:101D1000000C01400008014038B504460120009045
:101D20000020FE494870012000902EE0BDF8000020
:101D3000204018B10120FA49086002E00020F8496B
:101D400008600120F649083108603220FFF7ABFE39
:101D50000020F449C1F888013220FFF7A4FE0120D9
:101D6000F049C1F888010846D0F8280130B1EB48A5
:101D70004078BDF800100843E8494870BDF80000FD
:101D80004FF6FF7101EA40000090BDF80000FF2807
:101D9000CCDD38BD10B50020E149091D0860E249DD
:101DA0000878FFF7B9FFE0494878FFF7B5FF012051
:101DB000DC49C1F88401D9484078732801D100205A
:101DC00010BD0120FCE71CB500200190012000900F
:101DD0000020D349091D0860D3490878FFF79CFF0C
:101DE000D1494878FFF798FF0220019033E00120A5
:101DF000009024E00120CA49083108600020C94948
:101E0000C1F888013220FFF74EFE0120C549C1F814
:101E100088010846D0F8280150B1C0489DF8041048
:101E2000405CBDF800100843BC499DF8042088546C
:101E3000BDF800004FF6FF7101EA40000090BDF8C8
:101E40000000FF28D6DD3220FFF72DFE9DF80400AC
:101E5000401CC0B201909DF804000928C7DB012096
:101E6000AF49091D08601CBD002004E00021AB4AF9
:101E70001154411CC8B20928F8DB704710B5FFF7B0
:101E8000F3FFFFF7A0FFA548C078A449097940EA0D
:101E90000120A649088000240FE0A54810F814008E
:101EA000401E012101FA00F0A0490988084010B93C
:101EB000601CC0B210BD601CC4B2102CEDDB002051
:101EC000F8E701469548405C704770B505460C46FA
:101ED00000209349091D08601020FFF7E4FD012050
:101EE000FFF71AFF4220FFF717FF0020FFF714FF4C
:101EF0002046FFF711FF2846FFF70EFF0020FFF7EF
:101F00000BFF0020FFF708FF0020FFF705FF002070
:101F1000FFF702FF01208349C1F884011020FFF779
:101F2000C2FD70BD10B500207D49091D086010205C
:101F3000FFF7B9FD0120FFF7EFFE4220FFF7ECFEAF
:101F40000020FFF7E9FE0020FFF7E6FE0020FFF784
:101F5000E3FE01207349C1F884011020FFF7A3FDBF
:101F600010BD10B500206E49091D08601020FFF754
:101F70009AFD0120FFF7D0FE4320FFF7CDFE0020A1
:101F8000FFF7CAFE0120FFF7C7FE0020FFF7C4FEDF
:101F90000020FFF7C1FE0020FFF7BEFE0020FFF784
:101FA000BBFE0020FFF7B8FE01205E49C1F88401A6
:101FB0001020FFF778FD10BD10B500205849091D0D
:101FC00008600120FFF7A8FE4420FFF7A5FE0020CF
:101FD000FFF7A2FE0120FFF79FFEEE20FFF79CFE19
:101FE0000020FFF799FE0020FFF796FE0020FFF784
:101FF00093FE0020FFF790FE01204A49C1F88401BA
:102000001020FFF750FD10BD10B500204449091DF8
:1020100008601020FFF747FD0120FFF77DFE4D20EF
:10202000FFF77AFE0020FFF777FE0020FFF774FE2F
:102030000120FFF771FE01203A49C1F88401102008
:10204000FFF731FD10BD10B500203549091D0860AE
:102050001020FFF728FD0120FFF75EFE4320FFF769
:102060005BFE0020FFF758FE0020FFF755FE5A20C8
:10207000FFF752FE5A20FFF74FFE5A20FFF74CFEA3
:102080005A20FFF749FE5A20FFF746FE0120254956
:10209000C1F884011020FFF706FD10BD08B501212D
:1020A0000820FEF7BDFB2348006820F4706021493A
:1020B00008600846006840F4006008601E488069B7
:1020C00040F008001C4988611A480068C0F31300FA
:1020D000184908600846006818490843154908600F
:1020E00028208DF8030003208DF802000120ADF8B0
:1020F000000069460F48001FFEF7F6F810208DF823
:10210000030003208DF802000720ADF800006946A7
:102110000848001FFEF7E8F808BD0000AC000020EA
:1021200080812142008021422400002022000020E2
:1021300026000020040C0140001002400000303353
:1021400010B5FFF7ABFFFFF7EDFEFFF7EBFEFFF774
:10215000E9FEFFF706FFFFF72FFFFFF755FFFFF739
:1021600072FF10BD10B50820FFF7ABFEC0F17F0075
:102170003A4908800846B0F9001039A000F01AFF6B
:102180003648B0F90000022813DD3448B0F90000E9
:10219000801E642148437D2190FBF1F000B22F495D
:1021A00008800846B0F90000642821DD642008801A
:1021B0001EE02A48B0F9000010F1020F15DA274896
:1021C000B0F90000801C642148437D2190FBF1F0B0
:1021D00000B2224908800846B0F9000010F1640FEF
:1021E00006DA6FF06300088002E000201B490880D7
:1021F0000520FFF766FEC0F180001D4908800846F3
:10220000B0F900101BA000F0D5FE1948B0F900008D
:1022100002280CDD1648B0F90000801E64214843F6
:102220007E2190FBF1F000B21149088015E01048C2
:10223000B0F9000010F1020F0CDA0D48B0F90000FF
:10224000801C642148437D2190FBF1F000B20849D5
:10225000088002E000200649088010BD1E00002012
:10226000737065656420202564200A090000000061
:102270002000002073776572766520202564202079
:102280000A090000FA4908807047F949091F0880C7
:10229000704708B501210820FEF7C2FA2020ADF8EA
:1022A000000010208DF8030003208DF8020069461D
:1022B000F048FEF719F82021EE48FEF7C4F8002098
:1022C000FFF7E3FF0020FFF7DDFF08BDEA4AD26910
:1022D00042F00202E84BDA61E84A126822F07F42DB
:1022E000E64B1A601A46126842F03B421A60E34A13
:1022F0000C32126842F0C002E04B0C331A60DC4A28
:102300000C3A1080121F1180D94A203A128842F0EC
:102310006002D74B203B1A801A46128842F008020E
:102320001A801A46128842F4C0421A801A4612884D
:1023300042F400621A80CE4A183A128842F0010232
:10234000CB4B183B1A801A46128842F010021A80B2
:102350008022C74B383B1A801A46128842F001028D
:102360001A800022C24B1B1F1A801B1D1A80704747
:1023700000B50020C2490860C249C1F89001C049B7
:1023800008390860C049C1F8BC01FFF77EFF002092
:10239000FFF778FF00BD2DE9F04F87B081460C466E
:1023A00014200690484600F0E1FC82460022B74B1C
:1023B00000F0FBFB07460022B54B00F068FC054629
:1023C00000F0F2FC0FFA80F9B9F1010F7DDBB148A2
:1023D0000078022811D1484600F0C8FC07460022C8
:1023E000AB4B00F0E2FB82460022A84B00F04FFC12
:1023F000054600F0D9FC0FFA80F90120A0490860D9
:102400000020A049C1F8900101209D4908390860C9
:1024100000209D49C1F8BC01012C3FDB1FFA89F067
:10242000FFF733FF069800F0B2FC074688462046C7
:1024300000F09CFC0022984BCDE9020100F0B2FBB9
:102440003A464346CDE9040100F0E6FC03D806987D
:1024500000F09DFC19E0204600F088FC00228E4B25
:10246000CDE9000100F09EFB07468846484600F093
:102470007DFC3A464346CDE9020100F096FB00227E
:10248000854BCDE9040100F002FC054600F0ABFCF1
:102490001FFA80FA5046FFF7F5FE94E1002C43DA6C
:1024A000604204B2069800F072FC07468846204657
:1024B00000F05CFC0022784BCDE9020100F072FBD9
:1024C0003A464346CDE9040100E036E000F0A4FCC2
:1024D00003D8069800F05BFC19E0204600F046FCAB
:1024E00000226D4BCDE9000100F05CFB07468846F9
:1024F000484600F03BFC3A464346CDE9020100F075
:1025000054FB0022644BCDE9040100F0C0FB0546FA
:1025100000F069FC1FFA80FA5046FFF7B6FE1FFA7A
:1025200089F0FFF7AFFE4EE11FFA89F0FFF7ADFE2D
:102530001FFA89F0FFF7A6FE45E1B9F1000F6FDA47
:10254000C9F100000FFA80F900204D490860012010
:102550004C49C1F890010020494908390860012020
:102560004949C1F8BC01012C3EDB1FFA89F0FFF795
:102570008CFE069800F00BFCCDE90401204600F02B
:10258000F5FB0022444BCDE9020100F00BFB0746AE
:10259000DDE9042300F040FC03D8069800F0F7FBC7
:1025A00019E0204600F0E2FB00223B4BCDE90001A0
:1025B00000F0F8FA07468846484600F0D7FB3A464E
:1025C0004346CDE9020100F0F0FA0022324BCDE99A
:1025D000040100F05CFB054600F005FC1FFA80FAE0
:1025E0005046FFF74FFEEEE0002C57DA604204B28F
:1025F000069800F0CCFBCDE90401204600F0B6FBC4
:1026000007460022244B00F0CDFACDE90201DDE9B6
:10261000042300F001FC04D8069800F0B8FB19E090
:1026200045E0204600F0A2FB074600221A4B00F0CE
:10263000B9FACDE90201484600F098FBCDE9000166
:10264000DDE9022300F0B1FA0022134BCDE90401C9
:1026500000F01DFB054600F0C6FB1FFA80FA50464D
:10266000FFF713FE1FFA89F0FFF70CFEABE0000046
:1026700038040040000C01400010024000080140F6
:1026800094812142008021420000214200001C4030
:102690000000244046000020000059401FFA89F045
:1026A000FFF7F3FD1FFA89F0FFF7ECFD8BE0012C3B
:1026B00041DB00205C49086001205C49C1F89001C1
:1026C00059490839086000205949C1F8BC015948E6
:1026D0000078032806D1A0B2FFF7D7FDA0B2FFF71C
:1026E000D1FD70E0204600F041FB07460022524B2E
:1026F00000F05BFA05460022504B00F0C8FA824613
:1027000000F071FB80B20590FFF7BFFD204600F09E
:102710002DFB07460022484B00F047FA05460022F1
:10272000464B00F0B4FA824600F05DFB80B20590A3
:10273000FFF7A8FD47E0002C43DA604204B2012015
:102740003949086000203949C1F8900136490839F3
:10275000086001203649C1F8BC01364800780328DA
:1027600006D1A0B2FFF791FDA0B2FFF78BFD2AE0E2
:10277000204600F0FBFA054600222F4B00F015FA28
:10278000074600222D4B00F082FA824600F02BFB18
:1027900080B20590FFF779FD204600F0E7FA054684
:1027A0000022254B00F001FA07460022234B00F0DF
:1027B0006EFA824600F017FB80B20590FFF762FDCB
:1027C00001E0FFF7D5FD07B0BDE8F08F00B50020B0
:1027D0001549086001201549C1F8900100201249EF
:1027E0000839086001201249C1F8BC016420FFF7D4
:1027F0004CFD6420FFF746FD00BD00B501200A49ED
:10280000086000200949C1F89001012006490839F3
:10281000086000200649C1F8BC016420FFF735FDBF
:102820006420FFF72FFD00BD9481214200802142EA
:102830000000214246000020008051400000594025
:1028400030B587B00025002444F61F60ADF81400B1
:102850004720ADF810000020ADF81600ADF81200CA
:1028600004A97B48FEF7D1FA7020ADF800000120E2
:10287000ADF802000420ADF80400ADF806500220C7
:10288000ADF808000020ADF80A004FF48070ADF8F4
:102890000C000020ADF80E0069466D48FEF7CEFA38
:1028A00008216B48FEF768FE7020ADF8000001209B
:1028B000ADF802000420ADF80400ADF80640022097
:1028C000ADF808000020ADF80A004FF48070ADF8B4
:1028D0000C000020ADF80E0069465D48FEF7E5FAF1
:1028E00008215B48FEF751FE01215948FEF714FE0E
:1028F00001215748FEF70FFD01215548FEF717FD4E
:1029000007B030BD08B5012140F60800FDF788FF8B
:102910004FF4C040ADF8000018208DF803000320EC
:102920008DF8020069464B48FDF7DEFC08BD10B586
:10293000FFF7E8FFFFF784FF10BD7FB505460C46A3
:1029400001210846FDF779FF4FF08040FEF7F2F9CC
:10295000ADF80850ADF804400020ADF80A00ADF81D
:10296000060001A94FF08040FEF74FFA01218807C9
:10297000FEF7ACFF012211469007FEF7E7FC1C2092
:102980008DF8000002208DF801008DF80200012072
:102990008DF803006846FEF764F901218807FEF709
:1029A000BAFC7FBD7FB505460C4601210220FDF72C
:1029B00044FF2948FEF7BEF9ADF80850ADF80440D1
:1029C0000020ADF80A00ADF8060001A92248FEF784
:1029D0001CFA01212048FEF779FF012211461E480A
:1029E000FEF7B4FC1D208DF8000003208DF80100D7
:1029F00002208DF8020001208DF803006846FEF7E2
:102A000030F901211448FEF786FC7FBD10B5012185
:102A10000F48FEF75EFF18B101210D48FEF76AFF6F
:102A200010BD10B501218807FEF753FF18B1012131
:102A30008807FEF75FFF10BD10B501210648FEF7BD
:102A400048FF18B101210448FEF754FF10BD0000F3
:102A5000002C0140000C0140000400402DE9FE4F15
:102A6000804681EA0300C00F0C46009021F000412F
:102A700023F00045B8EB0200A94105D240462146AB
:102A800090461C460B46024623F00040104347D0B8
:102A9000270DC7F30A00C3F30A510290401A0190B0
:102AA00040286BDAC3F3130040F4801B0098924671
:102AB00020B10023D2EB030A63EB0B0B01985946BC
:102AC000C0F14002504600F0D5F906460D4650468A
:102AD0005946019A00F0EDF910EB0800614100241D
:102AE00087EA115284EAE7731A4340D0009A62B32E
:102AF000019A012A4FEA075215DC001B61EB020123
:102B00004FF0004202EA0752CDE90042001C41F5B5
:102B1000801132462B4600F0EDF903B0BDE8F08F8E
:102B200040462146F9E7001B61EB0201001C41F51C
:102B3000801300185B412018A2F5001747EB030132
:102B400040EAD570B6196D4111E06D084FEA3606BE
:102B500045EAC0754FEA0752001B61EB0201001CF9
:102B600041F5801149084FEA3000001951413246C1
:102B70002B4603B0BDE8F04F00F0ADB9009801223C
:102B800040000023D0EB020263EBE0730098214683
:102B90004FEAE074B8EB000061EB0401E9E783F071
:102BA00000435BE781F0004158E72DE9FE4F81EAE1
:102BB000030404F0004421F0004100944FF0000BA6
:102BC00023F0004350EA01045ED052EA03045BD0D4
:102BD000C3F30A54C1F30A552C44A4F2F33401940C
:102BE000A0FB0254C1F3130141F48011C3F313039A
:102BF00043F4801301FB024400FB034E840A970A4E
:102C000044EA815447EA8357A4FB076802958D0A7A
:102C100005FB07854FEA932C04FB0C542705029D06
:102C20004FEA065847EA1637B5EB08056EEB070C76
:102C3000870E920E47EA811742EA8312A7FB020130
:102C4000B6EB0B0164EB00042B0D43EA0C335E186A
:102C500044EB1C50DA465146E7FB0201C5F313046E
:102C60004FEA0B3343EA14534FEA0432019C43EA20
:102C70000603A4F10C040294009CCDE900B400F01A
:102C800039F903B0BDE8F08F00200146F9E72DE9DE
:102C9000F04D81EA030404F0004B21F00045144696
:102CA0004FF0000A23F0004150EA050220D054EA18
:102CB00001021DD0C5F30A570246C5F31303C1F341
:102CC0001300C1F30A5640F4801543F48013A7EBB8
:102CD0000608101BD64608F2FD3873EB050002D338
:102CE00008F1010801E092185B41B8F1000F03DA26
:102CF00000200146BDE8F08D00204FF4801106460B
:102D000084460EE0171B73EB050705D3121B63EB1C
:102D1000050306434CEA010C49084FEA30009218BB
:102D20005B4150EA0107EDD152EA030012D082EA7A
:102D3000040083EA0501084305D0101BAB4106D20D
:102D40000122002306E000224FF0004302E06FF072
:102D5000010253101AEB06004CEB085110EB0A006D
:102D600041EB0B01BDE8F04D00F0B5B80EB5C10F59
:102D700080EAE0700844CA07002140F233438DE83E
:102D80000E000A460B4600F0B5F803B000BD0EB5C4
:102D900040F2334102910021CDE900110A460B4671
:102DA00000F0A8F803B000BD70B5C1F30A5201F0FD
:102DB00000450024C1F3130140F2FF3341F48011B8
:102DC0009A4201DA002070BD40F233439A42A2F2E7
:102DD000334203DC524200F05CF800E090402C43A8
:102DE000F1D0404270BDC1F30A5210B5C1F31301D6
:102DF00040F2FF3341F480119A4201DA002010BD05
:102E000040F233439A42A2F2334203DC524200F0D2
:102E100040F810BD904010BD30B5041E71F10004A3
:102E200004DB4FF00044404264EB0101141E73F1D7
:102E3000000405DB1C464FF00043524263EB0403E1
:102E40008B4208BF824230BD30B50B4601460020A0
:102E50002022012409E021FA02F59D4205D303FA5C
:102E600002F5491B04FA02F52844151EA2F10102DD
:102E7000F1DC30BD202A04DB203A00FA02F1002008
:102E800070479140C2F1200320FA03F319439040A8
:102E90007047202A04DB203A21FA02F00021704713
:102EA00021FA02F3D040C2F12002914008431946B2
:102EB0007047202A06DBCB17203A41FA02F043EA9A
:102EC000E07306E041FA02F3D040C2F120029140E3
:102ED00008431946704710B5141E73F1000408DA50
:102EE000401C41F1000192185B411A4301D120F0CE
:102EF000010010BD2DE9F04D92469B4611B1B1FA8B
:102F000081F202E0B0FA80F220329046FFF7B2FF81
:102F100004460F4640EA0A0041EA0B0153465A466E
:102F2000084313D0114653EA010019D0C8F14002FA
:102F30005046FFF7AEFF05460E46504659464246FC
:102F4000FFF798FF084305D0012004E020463946EA
:102F5000BDE8F08D0020054346EAE0762C43374378
:102F60000A986305E40AA0EB08000022FD0A44EA7F
:102F700047540A3002D500200146E9E7010510193F
:102F80006941DDE9084500196941BDE8F04DA2E756
:102F9000064C074D06E0E06840F0010394E80700A6
:102FA00098471034AC42F6D3FDF7A4F84831000836
:102FB000683100080FB4054B10B503A9044A029804
:102FC00000F018F810BC5DF814FB0000F11A0008BE
:102FD0001800002002E008C8121F08C1002AFAD118
:102FE00070477047002001E001C1121F002AFBD189
:102FF000704700002DE9FF4F89B09B46044600252D
:1030000006E025280BD05A460B999047641C6D1C8E
:1030100020780028F5D10DB02846BDE8F08F0027B4
:10302000B8460122474900E0074314F8013F203B1E
:1030300002FA03F00842F7D120782E2819D114F8AB
:10304000010F47F004072A280ED06FF02F022078D6
:10305000A0F1300109290CD808EB880102EB4101ED
:1030600000EB0108641CF2E70A98641C50F8048B1A
:103070000A9020780028CED0642808D0692806D08D
:1030800075281ED05A460B9990476D1C58E00A9936
:103090004FF00A0901C90A91002802DA40422D21A5
:1030A00002E0390504D52B218DF82010012103E021
:1030B000F90704D02021F7E78A4608AE0DE0002189
:1030C000FAE70A994FF00A0901C90A91F7E7494658
:1030D000FFF7BAFE303106F8011D0028F7D1ADEB3D
:1030E000060000F12009780701D44FF00108C84517
:1030F00002DDA8EB090000E000208046002706E082
:1031000008A85A46C05D0B9990476D1C7F1C574517
:10311000F6DB04E030205A460B9990476D1CB8F15D
:103120000001A8F10108F5DC05E016F8010B5A468C
:103130000B9990476D1CB9F10001A9F10109F4DC6C
:10314000641C65E7092801006831000800000020C0
:1031500048000000D42F0008B031000848000020CB
:1031600070040000E42F00080000000001020304C6
:103170000102030406070809020406080000000013
:1031800000000000000000000000000001420100FB
:103190000200030004000500060007000800090003
:1031A0000A000B000C000D000E000F0010000000C4
:04000005080000ED02
:00000001FF
